:100000000C9462000C948A000C948A000C94ED020B
:100010000C948A000C948A000C948A000C948A0038
:100020000C948A000C948A000C948A000C94CD02E3
:100030000C948A000C948A000C948A000C948A0018
:100040000C94F30B0C948A000C94F2090C948A0023
:100050000C948A000C948A000C948A000C948A00F8
:100060000C948A000C948A000000000024002700F1
:100070002A0000000000250028002B0000000000DE
:1000800023002600290004040404040404040202DA
:100090000202020203030303030301020408102007
:1000A0004080010204081020010204081020000012
:1000B0000007000201000003040600000000000029
:1000C0000000AB0A11241FBECFEFD4E0DEBFCDBFCE
:1000D00012E0A0E0B1E0EEEBF0E202C005900D927C
:1000E000A434B107D9F713E0A4E4B2E001C01D9233
:1000F000AC32B107E1F710E0C4ECD0E004C02297C5
:10010000FE010E945910C23CD107C9F70E94EB09B9
:100110000C945D100C9400009091570280912C0279
:10012000981709F483C090932C0220E030E040E05F
:1001300050E020935C0230935D0240935E02509346
:100140005F022093600230936102409362025093F9
:1001500063022093640230936502409366025093D9
:100160006702209368023093690240936A025093B9
:100170006B0220936C0230936D0240936E02509399
:100180006F02209370023093710240937202509379
:100190007302913021F0923009F048C02BC088EEF4
:1001A00093E090938B0080938A0080E090E0A0E43D
:1001B000B0E480932F0290933002A0933102B09369
:1001C00032028DEC9CECACECBDE380933302909357
:1001D0003402A0933502B093360280E090E0A8E4A8
:1001E000B3E48093370290933802A0933902B0931E
:1001F0003A02089580E090E0A0EAB0E480932F02F4
:1002000090933002A0933102B093320220933302D4
:1002100030933402409335025093360220933702D4
:10022000309338024093390250933A0208952F9246
:100230003F924F925F926F927F928F929F92AF9276
:10024000BF92CF92DF92EF92FF920F931F93DF93B3
:10025000CF9300D000D000D0CDB7DEB71B012C016A
:1002600039014A015801FE82ED8260914402709189
:100270004502809146029091470220E030E040E044
:100280005FE30E94710F7B018C01C401B30120E088
:1002900030E040E05FE30E94710F9B01AC01C801B8
:1002A000B7010E94BA0D6093440270934502809397
:1002B000460290934702A20191010E94B90D1B01D1
:1002C0002C0160936C0270936D0280936E02909388
:1002D0006F0220912F0230913002409131025091F3
:1002E00032020E94710F69837A838B839C836093AF
:1002F0007002709371028093720290937302E09087
:100300006802F090690200916A0210916B02CC249D
:10031000B7FCC094DC2CC601B5010E94BD0E3B01A8
:100320004C01C801B701A40193010E941E0E88234D
:100330000CF03DC02D813E81B901882777FD809565
:10034000982F0E94BD0E9B01AC01C801B7010E940D
:100350006D0F181664F5C201B1012091330230917E
:10036000340240913502509136020E94710F20E014
:1003700030E048EC52E40E94710F20E030E04AE7A0
:1003800054E40E94220E9B01AC0160915C027091CA
:100390005D0280915E0290915F020E94BA0D6093AF
:1003A0005C0270935D0280935E0290935F02C201D3
:1003B000B101209164023091650240916602509132
:1003C00067020E94B90D20E030E048EC52E40E9440
:1003D000220E20E030E04AE754E40E94220E2091F1
:1003E0003702309138024091390250913A020E940E
:1003F000710F7B018C0160936002709361028093A6
:1004000062029093630269817A818B819C81209141
:100410005C0230915D0240915E0250915F020E9449
:10042000BA0DA80197010E94BA0D7B018C01AD8124
:10043000BE81BD01882777FD8095982F0E94BD0E53
:100440005B016C01C801B701A40193010E946D0F0B
:10045000181614F484017301C801B701A6019501AF
:100460000E941E0E882314F486017501E092680232
:10047000F092690200936A0210936B022092640268
:10048000309265024092660250926702C801B7013D
:10049000A40193010E946D0F181614F484017301D6
:1004A000C801B701A60195010E941E0E882314F40D
:1004B00086017501B701C80126960FB6F894DEBF14
:1004C0000FBECDBFCF91DF911F910F91FF90EF90A5
:1004D000DF90CF90BF90AF909F908F907F906F9064
:1004E0005F904F903F902F900895CF93DF93A0910E
:1004F0005202B0915302E0915002F091510260918A
:100500004E0270914F0240914C0250914D0220E0FA
:1005100030E0C1E0D0E083B190E08C279D2781706E
:100520009070480F591F89B190E080749070689462
:1005300015F8959587951694E1F78C279D27680FF8
:10054000791F89B1881F8827881F90E08C279D27F5
:10055000E80FF91F83B190E08270907095958795B0
:100560008C279D27A80FB91F2F5F3F4F83E0293E9F
:10057000380789F6B0935302A0935202F0935102C8
:10058000E093500270934F0260934E0250934D02DD
:1005900040934C02DF91CF9108951F920F920FB6B6
:1005A0000F9211248F939F938091780290917902FA
:1005B0000196909379028093780280917A029091CB
:1005C0007B02019690937B0280937A029F918F9198
:1005D0000F900FBE0F901F9018951F920F920FB69D
:1005E0000F9211248F939F931F9B0BC080918002C9
:1005F000882339F4109279021092780281E0809376
:1006000080021F990EC080918002813051F4809148
:1006100078029091790290937D0280937C021092EF
:1006200080021E9B0BC080918102882339F41092B6
:100630007B0210927A0282E0809381021E990EC0A2
:1006400080918102823051F480917A0290917B02F4
:1006500090937F0280937E02109281029F918F91EE
:100660000F900FBE0F901F901895AF92BF92CF9230
:10067000DF92EF92FF920F931F938C010E94630C05
:100680005B016C01780100E010E002C00E9475027D
:100690000E94630C6A197B098C099D096E157F0500
:1006A0008007910798F31F910F91FF90EF90DF90D3
:1006B000CF90BF90AF900895EF92FF920F931F934A
:1006C00060918602709187028091880290918902E0
:1006D00020E030E040E05FE30E94710F7B018C017D
:1006E00082E00E94D50CAA2797FDA095BA2FBC01E5
:1006F000CD010E94BD0E20E030E040E05FE30E94AB
:10070000710F9B01AC01C801B7010E94BA0D609343
:1007100086027093870280938802909389020E94D8
:100720008F0ECB011F910F91FF90EF90089582E003
:1007300061E00E944C0D83E061E00E944C0D85E079
:1007400061E00E944C0D84E061E00E944C0D089530
:1007500088E060E00E944C0D86E060E00E944C0D55
:1007600087E060E00E944C0D89E060E00E944C0D43
:10077000089580E160E00E944C0D8FE061E00E94EE
:100780004C0D8FE061E00E946C0D08958AE060E0FE
:100790000E946C0D8AE061E00E944C0D82E2809321
:1007A00080008AE18093810088EB9BE090938B002E
:1007B00080938A0080E29EE4909387008093860075
:1007C00008958CE060E00E946C0D81E160E00E9481
:1007D0006C0D8BE060E00E946C0D8DE060E00E948B
:1007E0006C0D0895EF92FF920F931F936091240276
:1007F00070912502809126029091270224EA30E729
:100800004DE75FE30E94710F7B018C0180E00E9445
:10081000D50CAA2797FDA095BA2FBC01CD010E9447
:10082000BD0E2AE037ED43E25CE30E94710F9B01AD
:10083000AC01C801B7010E94BA0D60932402709305
:10084000250280932602909327022BE137E64CE99C
:1008500050E40E94710F9B01AC010E94BA0D60939D
:1008600028027093290280932A0290932B0220E0A1
:1008700030E84BEB55E40E941E0E88232CF40E94B6
:10088000E10384E0809357021F910F91FF90EF9056
:100890000895EF92FF920F931F937C010E94630CC7
:1008A000209148023091490240914A0250914B02F6
:1008B000621B730B840B950B00E010E0E616F70645
:1008C0000807190708F088C040914C0250914D026A
:1008D00020914E0230914F02E0915002F09151026E
:1008E0006091520270915302C901840F951F8E0FBF
:1008F0009F1F860F971F069738F485E08093540258
:1009000081E08093570265C082E080935702109285
:1009100054024217530718F481E080935402E617FB
:10092000F70728F48091540282608093540240912A
:100930005402E42FF0E0BF0175956795E170F07007
:10094000EE0FFF1FE45BFD4FDB01AA0FBB1FA05B97
:10095000BD4F208131818D919C918217930720F4A6
:1009600041704093540204C0862F8E5F80935402DE
:100970000E94E10380915402813049F0813028F0D7
:10098000823039F0833059F406C08CE005C081E133
:1009900003C08BE001C08DE061E00E946C0D1092FD
:1009A0004D0210924C0210924F0210924E02109281
:1009B00051021092500210925302109252020E9461
:1009C000630C609348027093490280934A029093AB
:1009D0004B028091540200C01F910F91FF90EF9045
:1009E0000895CF92DF92EF92FF920F931F933AE810
:1009F000C32ED12C20ED37E0F601318320837C011A
:100A000000E010E0C801B7010E94710C8CED95E088
:100A1000F60191838083C801B7010E94710C88EEB2
:100A200093E0F60191838083C801B7010E94710CA5
:100A30001F910F91FF90EF90DF90CF900895CF928C
:100A4000DF92EF92FF920F931F93CF93DF9381304A
:100A5000B9F08130E8F0823059F0833009F0D7C026
:100A600000E010E0C62FD0E06A01EE24FF24CCC0E5
:100A700000E010E0C62FD0E06A01EE24FF249EC003
:100A800000E010E0C62FD0E06A01EE24FF2468C029
:100A9000C0E0D0E0C62EDD247A0100E010E031C0D5
:100AA0008CE060E00E946C0D81E161E00E946C0DC1
:100AB000C801B7010E94710C81E160E00E946C0DD9
:100AC0008BE061E00E946C0DC801B7010E94710CBF
:100AD0008BE060E00E946C0D8DE061E00E946C0D87
:100AE000C801B7010E94710C8DE060E00E946C0D9E
:100AF0008CE061E00E946C0DC801B7010E94710C8E
:100B00002196CC16DD0664F68CE068C08CE061E0CE
:100B10000E946C0D81E161E00E946C0D8BE061E050
:100B20000E946C0D8DE061E00E946C0DC701B60162
:100B30000E94710C8CE060E00E946C0D81E160E02D
:100B40000E946C0D8BE060E00E946C0D8DE060E017
:100B50000E946C0DC701B6010E94710C0F5F1F4F00
:100B6000C017D1079CF653C08CE060E00E946C0D6A
:100B70008BE060E00E946C0D81E161E00E946C0DF1
:100B80008DE061E00E946C0DC701B6010E94710CFE
:100B90008CE061E00E946C0D8BE061E00E946C0DC6
:100BA00081E160E00E946C0D8DE060E00E946C0DC0
:100BB000C701B6010E94710C0F5F1F4FC017D1070C
:100BC0009CF681E160E00E946C0D8DE060E00E9487
:100BD0006C0D8CE060E00E946C0D8BE060E00E9488
:100BE0006C0D15C08CE061E00E946C0DC701B60170
:100BF0000E94710C8CE060E00E946C0DC701B60190
:100C00000E94710C0F5F1F4FC017D1075CF7DF9177
:100C1000CF911F910F91FF90EF90DF90CF900895AB
:100C2000EF92FF920F931F93CF93DF9360917C021B
:100C300070917D02882777FD8095982F0E94BD0EC8
:100C400020E030E040E05FE30E94710F7B018C0107
:100C500060E070E080E090E0C0E0D0E020E030E0D4
:100C600040E05FE30E94710FA80197010E94BA0D56
:100C70002196CB30D10591F720E030E040E85FE3EA
:100C80000E946D0F181614F080E017C083E06FE02B
:100C900044E650E00E941F0580917C0290917D0205
:100CA000909383028093820280917E0290917F02D2
:100CB000909385028093840281E0DF91CF911F9110
:100CC0000F91FF90EF9008958CE061E00E944C0D31
:100CD00081E161E00E944C0D8BE061E00E944C0DCF
:100CE0008DE061E00E944C0D80E061E04DE750E056
:100CF0000E941F050895FF920F931F93CF93DF93D8
:100D0000062F882359F484E060E00E946C0D85E092
:100D100060E00E946C0D109256022FC0CAEFD0E026
:100D2000182F833308F012E380915602882311F4C0
:100D3000F12E10E5013041F484E060E00E946C0D7A
:100D400085E0612F70E00AC0002351F484E061E087
:100D50000E946C0DBE01611B710985E00E94F30CBD
:100D600080915602882349F482E390E00E94350383
:100D700081E0809356028F2DD3CFDF91CF911F91C9
:100D80000F91FF900895FF920F931F93CF93DF93DE
:100D9000062F882359F483E060E00E946C0D82E006
:100DA00060E00E946C0D109255022FC0CAEFD0E097
:100DB000182F833308F012E380915502882311F431
:100DC000F12E10E5013041F482E060E00E946C0DEC
:100DD00083E0612F70E00AC0002351F482E061E0FB
:100DE0000E946C0DBE01611B710983E00E94F30C2F
:100DF00080915502882349F482E390E00E943503F4
:100E000081E0809355028F2DD3CFDF91CF911F9139
:100E10000F91FF900895EF92FF920F931F93CF933E
:100E2000DF93FC01409182025091830220917C0269
:100E300030917D02241B350B37FF03C0309521957F
:100E40003F4F80913B0290913C028217930724F41C
:100E500030933C0220933B02009184021091850262
:100E600020917E0230917F02201B310B37FF03C09F
:100E7000309521953F4F80913B0290913C02821723
:100E8000930724F430933C0220933B027F01E41A41
:100E9000F50AF7FE02C0EE24FF244E1B5F0B57FF3E
:100EA00002C040E050E0061B170B400F511F25E524
:100EB00030E0E0913B02F0913C02429FC001439F31
:100EC000900D529F900D1124BF010E94F30FEB0172
:100ED000E00EF11EE29EC001E39E900DF29E900D89
:100EE0001124BF010E94F30F8B012FEFCC3FD207DB
:100EF00024F49E012195822F07C0C530D1051CF036
:100F00008C2F61E002C080E060E00E94C3063FEFEA
:100F10000C3F13071CF4802F819507C00530110585
:100F20001CF0802F61E002C080E060E00E947B0640
:100F3000DF91CF911F910F91FF90EF900895EF9265
:100F4000FF920F931F93182F0E94630C209174023D
:100F5000309175024091760250917702621B730BBB
:100F6000840B950B653671058105910508F498C0D1
:100F700020912D0230912E02113091F5B901882770
:100F800077FD8095982F0E94BD0E7B018C010E94F9
:100F90005C03A0E0B0E0BC01CD010E94BB0E9B0150
:100FA000AC01C801B7010DE210E0F3EDEF2EFFEF49
:100FB000FF2E0E9417010E948A0E8B01161617063B
:100FC00044F480E060E00E947B06802F8C5E60E04D
:100FD0005BC0672B11F00E511040802F819549C0E6
:100FE00082E080935702B901882777FD8095982F7A
:100FF0000E94BD0E7B018C010E945C03A0E0B0E06A
:10100000BC01CD010E94BB0E9B01AC01C801B70120
:1010100007E810E0EDE2EE2EF12C0E9417010E948D
:101020008A0E882777FD8095982F28EE33E040E0E0
:1010300050E00E94D40F24EB30E040E050E00E94EA
:10104000281028513C4F30938B0020938A008091C8
:101050005402813069F0813028F0823079F0833099
:10106000A9F40CC088E261E00E947B0688E20BC014
:1010700082E361E00E947B0680E005C080E061E0E1
:101080000E947B0682E361E00E94C3060E94630C1B
:101090006093740270937502809376029093770246
:1010A0001F910F91FF90EF900895EF92FF920F9391
:1010B0001F937C010E94630C2091580230915902C9
:1010C00040915A0250915B02621B730B840B950B8B
:1010D00000E010E0E616F7060807190708F056C00A
:1010E0000E94630C609358027093590280935A02D5
:1010F00090935B020E94F2038EE093E060E071E067
:101100000E94E20A609128027091290280912A02CD
:1011100090912B020E948A0E9B01AC018EE093E01D
:10112000B9010E94DB0B8EE093E067E071E00E9462
:10113000E20A8EE093E069E071E00E94E20A0E9418
:101140005C03BC018EE093E00E94DB0B8EE093E039
:1011500060E171E00E94E20A60912D0270912E021E
:101160008EE093E00E94DB0B8EE093E063E171E0A0
:101170000E94E20A8EE093E067E071E00E94E20ADA
:101180008EE093E065E171E00E94E20A1F910F9109
:10119000FF90EF90089580915702823009F464C067
:1011A000833030F4882371F0813009F0ADC054C031
:1011B000843009F474C0843008F462C0853009F0CA
:1011C000A3C095C08EE093E068E171E00E94E20A5E
:1011D00082E00E94D50CBC0190932E0280932D02D8
:1011E0008EE093E00E94E30B8EE093E065E371E014
:1011F0000E94110B0E941006813071F482E065E0BC
:1012000048EC50E00E941F058EE093E06FE471E02F
:101210000E94110B83E019C08EE093E067E771E054
:101220000E94110B8EE093E06CE971E00E94110BBB
:101230000E94C6038EE093E06FEC71E00E94110BF8
:1012400088EE93E00E94F10481E08093570260E908
:1012500071E080E090E055C00E94750288EC90E05B
:101260000E94490481E007C00E94750288EC90E06A
:101270000E94490480E00E949F070E948C000AC0DF
:1012800060917E0270917F0280917C0290917D023C
:101290000E940B0786E990E00E945508089580E0BF
:1012A00061E00E947B0680E061E00E94C30682E06C
:1012B00065E044E650E00E941F058EE093E068EE92
:1012C00071E00E94E20A60912802709129028091E7
:1012D0002A0290912B020E948A0E9B01AC018EE0A3
:1012E00093E0B9010E94E30B0E94F20308950E946B
:1012F000750288EC90E00E94490461E070E080E0B3
:1013000090E00E94710C08951092570208950F9377
:101310001F930EE013E0C80140E056E960E070E082
:101320000E942F0AC80169EF71E00E94E20A84B1AD
:101330008F7384B981E08093680080EC80936B00A8
:10134000109280008AE0809381008AE090E0909380
:10135000890080938800EFE6F0E0808182608083DE
:1013600078940E9464060E94A8030E94B9030E9418
:1013700097030EE013E0C8016DE072E00E94110BCC
:1013800080E00E94D50CAA2797FDA095BA2FBC013A
:10139000CD010E94BD0E60932402709325028093BC
:1013A000260290932702C80163E172E00E94E20ADC
:1013B000609124027091250280912602909127026B
:1013C0000E948A0E9B01AC01C801B9010E94E30B87
:1013D0001F910F9108950E949B0C0E9487090E9403
:1013E000CB08FDCF1F920F920FB60F9211242F93AF
:1013F0003F934F935F936F937F938F939F93AF939D
:10140000BF93EF93FF934091C600E0910A03F091E0
:101410000B03CF01019660E870E00E94F30F9C017E
:1014200080910C0390910D032817390739F0E65786
:10143000FD4F408330930B0320930A03FF91EF91FC
:10144000BF91AF919F918F917F916F915F914F91DC
:101450003F912F910F900FBE0F901F901895AF9254
:10146000BF92CF92DF92EF92FF920F931F93CF9391
:10147000DF936C017A018B01DC011496AD90BC9076
:101480001597CB01BA0122E030E040E050E00E9425
:101490002810205E3E45484F5F4FCA01B901A801A0
:1014A00097010E942810C901DA010197A109B10929
:1014B000292F3A2F4B2F552747FD5A950196A11DED
:1014C000B11DE5012883E601EE81FF818150808313
:1014D000EA85FB85208141E050E0CA010E8402C00C
:1014E000880F991F0A94E2F7282B2083EA85FB8551
:1014F0002081CA010F8402C0880F991F0A94E2F765
:10150000282B2083EA85FB858081088802C0440F50
:10151000551F0A94E2F7842B8083DF91CF911F91AE
:101520000F91FF90EF90DF90CF90BF90AF90089514
:10153000FC01A085B18521898C9190E0022E02C02A
:10154000959587950A94E2F780FFF6CF0484F58598
:10155000E02D6083089582E492E090930F038093DE
:101560000E038AE892E0909311038093100385ECB8
:1015700090E0909313038093120384EC90E0909397
:1015800015038093140380EC90E0909317038093ED
:10159000160381EC90E0909319038093180386EC76
:1015A00090E090931B0380931A0384E080931C03C4
:1015B00083E080931D0387E080931E0385E0809382
:1015C0001F0308950F931F93CF93DF938C01EB01BB
:1015D00009C02196D801ED91FC910190F081E02D98
:1015E000C801099568816623A1F7DF91CF911F910A
:1015F0000F9108950F931F938C01DC01ED91FC91E5
:101600000190F081E02D6DE00995D801ED91FC91FC
:101610000190F081E02DC8016AE009951F910F91BA
:1016200008950F931F938C010E94E20AC8010E9443
:10163000FA0A1F910F9108952F923F924F925F9255
:101640006F927F928F929F92AF92BF92CF92DF92D2
:10165000EF92FF920F931F93DF93CF93CDB7DEB737
:10166000A0970FB6F894DEBF0FBECDBF1C016A0174
:101670007B01411551056105710549F4DC01ED91CE
:10168000FC910190F081E02D60E3099554C088241D
:1016900099245401422E55246624772401E010E059
:1016A0000C0F1D1F080D191DC701B601A3019201E2
:1016B0000E940610F80160830894811C911CA11CF3
:1016C000B11CC701B601A30192010E940610C90115
:1016D000DA016C017D01C114D104E104F104F1F6D9
:1016E00081E0E82EF12CEC0EFD1EE80CF91C3E0109
:1016F0000894611C711CD501C4010197A109B109AD
:101700006C01C818D90814C0F601EE0DFF1D6081E8
:101710006A3010F4605D01C0695CD101ED91FC910B
:101720000190F081E02DC10109950894E108F108CC
:101730006E147F0449F7A0960FB6F894DEBF0FBE73
:10174000CDBFCF91DF911F910F91FF90EF90DF9070
:10175000CF90BF90AF909F908F907F906F905F9051
:101760004F903F902F900895EF92FF920F931F9309
:10177000CF93DF93EC017A018B0177FF0FC0E881F3
:10178000F9810190F081E02D6DE2099510950095A9
:10179000F094E094E11CF11C011D111DCE01B80173
:1017A000A7012AE00E941C0BDF91CF911F910F919E
:1017B000FF90EF900895AB01662757FD6095762F57
:1017C0000E94B40B08950F931F938C01AB01662701
:1017D00057FD6095762F0E94B40BC8010E94FA0A4B
:1017E0001F910F9108951F920F920FB60F9211241F
:1017F0002F938F939F93AF93BF93809120039091EA
:101800002103A0912203B09123030196A11DB11DD4
:101810008093200390932103A0932203B09323038A
:101820008091240390912503A0912603B091270372
:101830008050904CAF4FBF4F80932403909325036B
:10184000A0932603B093270327C08091240390918F
:101850002503A0912603B091270380549F41A04007
:10186000B0408093240390932503A0932603B09364
:1018700027038091280390912903A0912A03B09116
:101880002B030196A11DB11D80932803909329037A
:10189000A0932A03B0932B038091240390912503F6
:1018A000A0912603B091270381549F41A040B040EE
:1018B00060F6BF91AF919F918F912F910F900FBEC6
:1018C0000F901F9018958FB7F894209128033091AE
:1018D000290340912A0350912B038FBFB901CA01FC
:1018E0000895EF92FF920F931F937B018C018FB7A6
:1018F000F894409128035091290360912A03709134
:101900002B038FBF2FB7F894809128039091290360
:10191000A0912A03B0912B032FBF841B950BA60B1C
:10192000B70BE816F9060A071B0760F71F910F911E
:10193000FF90EF900895789484B5826084BD84B55B
:10194000816084BD85B5826085BD85B5816085BDBA
:10195000EEE6F0E0808181608083E1E8F0E0808164
:1019600082608083808181608083E0E8F0E0808114
:1019700081608083E1EBF0E0808184608083E0EB34
:10198000F0E0808181608083EAE7F0E0808184601C
:101990008083808182608083808181608083808178
:1019A000806880831092C1000895877090913D02F5
:1019B0009295990F990F907C982B90937C00809131
:1019C0007A00806480937A0080917A0086FDFCCF53
:1019D0002091780040917900942F80E030E0282B0E
:1019E000392BC90108951F93CF93DF93182FEB0173
:1019F00061E00E944C0DE12FF0E0E255FF4F849131
:101A0000833051F480918000806880938000D0936F
:101A10008900C09388003CC0843051F480918000DC
:101A2000806280938000D0938B00C0938A0030C086
:101A3000813039F4209729F184B5806884BDC7BD11
:101A400027C0823039F42097E1F084B5806284BDEC
:101A5000C8BD1EC0863041F48091B000806880937C
:101A6000B000C093B30014C0873041F48091B0003F
:101A700080628093B000C093B4000AC0C038D10522
:101A80001CF4812F60E002C0812F61E00E946C0D88
:101A9000DF91CF911F910895282F30E0C90186561C
:101AA0009F4FFC0194912A573F4FF901849188235D
:101AB00091F0E82FF0E0EE0FFF1FE859FF4FA591DE
:101AC000B491662329F48C91909589238C93089581
:101AD0008C91892B8C930895482F50E0CA01825530
:101AE0009F4FFC012491CA0186569F4FFC0194919F
:101AF0004A575F4FFA0134913323D1F1222331F158
:101B0000233021F4809180008F7705C0243031F498
:101B1000809180008F7D8093800018C0213019F45F
:101B200084B58F7704C0223021F484B58F7D84BDC5
:101B30000DC0263021F48091B0008F7705C027308A
:101B400029F48091B0008F7D8093B000E32FF0E006
:101B5000EE0FFF1FEE58FF4FA591B491662329F4B5
:101B60008C91909589238C9308958C91892B8C93DB
:101B700008955058BB27AA270ED075C166D130F002
:101B80006BD120F031F49F3F11F41EF45BC10EF4D1
:101B9000E095E7FB51C1E92F77D180F3BA176207CF
:101BA00073078407950718F071F49EF58FC10EF442
:101BB000E0950B2EBA2FA02D0B01B90190010C015D
:101BC000CA01A0011124FF27591B99F0593F50F475
:101BD000503E68F11A16F040A22F232F342F4427CD
:101BE000585FF3CF469537952795A795F0405395C5
:101BF000C9F77EF41F16BA0B620B730B840BBAF095
:101C00009150A1F0FF0FBB1F661F771F881FC2F7FF
:101C10000EC0BA0F621F731F841F48F48795779513
:101C20006795B795F7959E3F08F0B3CF9395880FCA
:101C300008F09927EE0F979587950895D9D008F465
:101C400081E008950CD00FC107D140F0FED030F0F4
:101C500021F45F3F19F0F0C0511139C1F3C014D124
:101C600098F39923C9F35523B1F3951B550BBB2763
:101C7000AA2762177307840738F09F5F5F4F220F10
:101C8000331F441FAA1FA9F333D00E2E3AF0E0E809
:101C900030D091505040E695001CCAF729D0FE2F55
:101CA00027D0660F771F881FBB1F261737074807E7
:101CB000AB07B0E809F0BB0B802DBF01FF2793589D
:101CC0005F4F2AF09E3F510568F0B6C000C15F3FEC
:101CD000ECF3983EDCF3869577956795B795F79585
:101CE0009F5FC9F7880F911D9695879597F908957D
:101CF000E1E0660F771F881FBB1F62177307840719
:101D0000BA0720F0621B730B840BBA0BEE1F88F727
:101D1000E095089504D06894B111D9C00895BCD05D
:101D200088F09F5790F0B92F9927B751A0F0D1F0C4
:101D3000660F771F881F991F1AF0BA95C9F712C04E
:101D4000B13081F0C3D0B1E00895C0C0672F782FC3
:101D50008827B85F39F0B93FCCF3869577956795BA
:101D6000B395D9F73EF490958095709561957F4F26
:101D70008F4F9F4F0895E89409C097FB3EF49095CC
:101D80008095709561957F4F8F4F9F4F9923A9F054
:101D9000F92F96E9BB279395F695879577956795E3
:101DA000B795F111F8CFFAF4BB0F11F460FF1BC027
:101DB0006F5F7F4F8F4F9F4F16C0882311F096E9BA
:101DC00011C0772321F09EE8872F762F05C0662368
:101DD00071F096E8862F70E060E02AF09A95660F21
:101DE000771F881FDAF7880F9695879597F90895DA
:101DF000990F0008550FAA0BE0E8FEEF161617061C
:101E0000E807F907C0F012161306E407F50798F083
:101E1000621B730B840B950B39F40A2661F0232B9C
:101E2000242B252B21F408950A2609F4A140A69518
:101E30008FEF811D811D089597F99F6780E870E0FD
:101E400060E008959FEF80EC089500240A94161630
:101E5000170618060906089500240A941216130698
:101E6000140605060895092E0394000C11F4882326
:101E700052F0BB0F40F4BF2B11F460FF04C06F5F42
:101E80007F4F8F4F9F4F089557FD9058440F551F18
:101E900059F05F3F71F04795880F97FB991F61F0EC
:101EA0009F3F79F087950895121613061406551F63
:101EB000F2CF4695F1DF08C0161617061806991FCF
:101EC000F1CF86957105610508940895E894BB27C4
:101ED00066277727CB0197F908958ADF08F48FEFFB
:101EE00008950BD0C0CFB1DF28F0B6DF18F09523EE
:101EF00009F0A2CFA7CF1124EACFC6DFA0F3959FA8
:101F0000D1F3950F50E0551F629FF001729FBB27E0
:101F1000F00DB11D639FAA27F00DB11DAA1F649F8C
:101F20006627B00DA11D661F829F2227B00DA11D3F
:101F3000621F739FB00DA11D621F839FA00D611DC5
:101F4000221F749F3327A00D611D231F849F600DE6
:101F5000211D822F762F6A2F11249F5750408AF01F
:101F6000E1F088234AF0EE0FFF1FBB1F661F771FAB
:101F7000881F91505040A9F79E3F510570F05CCFEB
:101F8000A6CF5F3FECF3983EDCF386957795679597
:101F9000B795F795E7959F5FC1F7FE2B880F911DC9
:101FA0009695879597F90895629FD001739FF001E8
:101FB000829FE00DF11D649FE00DF11D929FF00DD9
:101FC000839FF00D749FF00D659FF00D9927729F10
:101FD000B00DE11DF91F639FB00DE11DF91FBD019B
:101FE000CF011124089597FB092E07260AD077FD0B
:101FF00004D049D006D000201AF4709561957F4F27
:102000000895F6F7909581959F4F0895A1E21A2EB5
:10201000AA1BBB1BFD010DC0AA1FBB1FEE1FFF1F8C
:10202000A217B307E407F50720F0A21BB30BE40BDC
:10203000F50B661F771F881F991F1A9469F7609523
:102040007095809590959B01AC01BD01CF010895DD
:1020500097FB092E05260ED057FD04D0D7DF0AD0F6
:10206000001C38F450954095309521953F4F4F4FC7
:102070005F4F0895F6F790958095709561957F4F25
:102080008F4F9F4F0895AA1BBB1B51E107C0AA1F8A
:10209000BB1FA617B70710F0A61BB70B881F991F09
:1020A0005A95A9F780959095BC01CD010895EE0F42
:0E20B000FF1F0590F491E02D0994F894FFCFE6
:1020BE00426174743A2000090020416C743A200089
:1020CE00205B005D000D0A0052656164696E672039
:1020DE007374617274757020616C74697475646563
:1020EE002E2E2E2000436865636B696E6720524367
:1020FE0020636F6E6E656374696F6E2E2E2E0052A6
:10210E00432064657465637465642C20616374692F
:10211E00766174696E672050574D207365747469CB
:10212E006E67732E2E2E004E6F2052432064657400
:10213E0065637465642C207374617274696E6720B4
:10214E006E6F726D616C6C792E2E2E0053746172EF
:10215E0074696E672074696D65723120466173749F
:10216E002050574D2C20746F2070756C736520763F
:10217E006563746F7220736572766F2E2E2E005407
:10218E00657374696E6720566563746F722053654C
:10219E0072766F2E2E2E20004C4F57204241544502
:1021AE005252592121213A20005374617274696E82
:1021BE00672053797374656D2E2E2E20004F4B21A0
:1021CE002121004261747465727920416E616C6FD9
:1021DE00673A200000C07F440080BB45051E00000A
:1021EE0000A041CDCCBC40CDCCCC3D1400010000B4
:0421FE000000980A3B
:00000001FF
