:100000000C945B000C9483000C9483000C94DA0233
:100010000C9483000C9483000C9483000C94830054
:100020000C9483000C9483000C9483000C94BA020B
:100030000C9483000C9483000C9483000C94830034
:100040000C94010C0C9483000C94F00E0C9483001F
:100050000C9483000C9483000C9483000C94830014
:100060000C9483000C948300000024272A000025B0
:10007000282B000023262904040404040404040299
:100080000202020202030303030303010204081035
:100090002040800102040810200102040810200002
:1000A0000000070002010000030406000000000039
:1000B00000000000590A11241FBECFEFD4E0DEBFBC
:1000C000CDBF12E0A0E0B1E0E6EAF3E202C00590A5
:1000D0000D92A434B107D9F713E0A4E4B2E001C053
:1000E0001D92A332B107E1F710E0C6EBD0E004C0E7
:1000F0002297FE010E94CD11C43BD107C9F70E948F
:10010000520A0C94D1110C940000909162028091DB
:100110002C02981709F483C090932C0220E030E061
:1001200040E050E0209367023093680240936902F8
:1001300050936A0220936B0230936C0240936D02DD
:1001400050936E02209373023093740240937502B1
:10015000509376022093770230937802409379028D
:1001600050937A0220937B0230937C0240937D026D
:1001700050937E0220937F0230938002409381024D
:1001800050938202913021F0923009F048C02BC088
:1001900088EE93E090938B0080938A0080E090E05B
:1001A000A0E4B0E480932F0290933002A093310238
:1001B000B09332028DEC9CECACECBDE38093330247
:1001C00090933402A0933502B093360280E090E021
:1001D000A8E4B3E48093370290933802A0933902E5
:1001E000B0933A02089580E090E0A0EEB0E48093EE
:1001F0002F0290933002A0933102B09332022093E9
:1002000033023093340240933502509336022093E8
:100210003702309338024093390250933A020895DE
:100220002F923F924F925F926F927F928F929F9206
:10023000AF92BF92CF92DF92EF92FF920F931F93F4
:10024000DF93CF9300D000D000D0CDB7DEB71B0135
:100250002C0139014A015801FE82ED8220E030E094
:1002600040E05FE360914A0270914B0280914C0242
:1002700090914D020E94E5107B018C0120E030E05E
:1002800040E05FE3C401B3010E94E5109B01AC01B3
:10029000C801B7010E942E0F60934A0270934B026F
:1002A00080934C0290934D02A20191010E942D0F68
:1002B0001B012C0160937B0270937C0280937D0272
:1002C00090937E0220912F023091300240913102B2
:1002D000509132020E94E51069837A838B839C835C
:1002E00060937F02709380028093810290938202D8
:1002F000E0907702F09078020091790210917A02F2
:10030000CC24B7FCC094DC2CC601B5010E9431108E
:100310003B014C019B01AC01C801B7010E94920F47
:1003200088230CF03DC02D813E81B901882777FDDF
:100330008095982F0E9431109B01AC01C801B70134
:100340000E94E110181664F52091330230913402B6
:100350004091350250913602C201B1010E94E51070
:1003600020E030E048EC52E40E94E51020E030E06C
:100370004AE754E40E94960F9B01AC01609167022A
:10038000709168028091690290916A020E942E0F1A
:1003900060936702709368028093690290936A0287
:1003A000209173023091740240917502509176024F
:1003B000C201B1010E942D0F20E030E048EC52E470
:1003C0000E94960F20E030E04AE754E40E94960F26
:1003D00020913702309138024091390250913A020F
:1003E0000E94E5107B018C0160936B0270936C029C
:1003F00080936D0290936E02AD81BE81BD0188270E
:1004000077FD8095982F0E9431105B016C0120913F
:100410006702309168024091690250916A026981D5
:100420007A818B819C810E942E0FA80197010E94E6
:100430002E0F7B018C01A40193010E94E11018167C
:1004400014F484017301A6019501C801B7010E944B
:10045000920F882314F486017501E0927702F092DE
:1004600078020093790210937A02209273023092FC
:1004700074024092750250927602A4019301C80161
:10048000B7010E94E110181614F484017301A6014B
:100490009501C801B7010E94920F882314F48601C8
:1004A0007501B701C80126960FB6F894DEBF0FBEDE
:1004B000CDBFCF91DF911F910F91FF90EF90DF9013
:1004C000CF90BF90AF909F908F907F906F905F90F4
:1004D0004F903F902F9008956F927F928F929F92AE
:1004E000AF92BF92CF92DF92EF92FF920F931F9342
:1004F0005B016C01922E832E742E652E0E94E110FA
:10050000181624F4A92CB82CC72CD62C9701A801B6
:10051000B501C6010E94920F882314F457016801A7
:10052000B501C6011F910F91FF90EF90DF90CF9022
:10053000BF90AF909F908F907F906F90089584B1FF
:100540008F7384B981E08093680080EC80936B00A6
:10055000109280008AE0809381008AE090E090937E
:10056000890080938800EFE6F0E0808182608083DC
:10057000789408951F920F920FB60F9211248F93C3
:100580009F938091870290918802019690938802B0
:10059000809387028091890290918A0201969093BC
:1005A0008A02809389029F918F910F900FBE0F90C6
:1005B0001F9018951F920F920FB60F9211248F93D0
:1005C0009F931F9B0BC080918F02882339F4109258
:1005D00088021092870281E080938F021F990EC0DB
:1005E00080918F02813051F480918702909188022E
:1005F00090938C0280938B0210928F021E9B0BC0F3
:1006000080919002882339F410928A021092890214
:1006100082E0809390021E990EC0809190028230F9
:1006200051F48091890290918A0290938E02809376
:100630008D02109290029F918F910F900FBE0F909C
:100640001F901895AA2797FDA095BA2FBC01CD0140
:100650002CE434E040E050E00E94481124EB30E00C
:1006600040E050E00E94B01128513C4F30938B0085
:1006700020938A00089560E08CE00E94710D60E094
:1006800081E10E94710D60E08BE00E94710D60E0DD
:100690008DE00E94710D0895EF92FF920F931F93CA
:1006A0007C010E945E0C20914E0230914F024091DD
:1006B000500250915102621B730B840B950B00E0AA
:1006C00010E0E616F7060807190708F08BC04091FE
:1006D0005202509153022091540230915502E09100
:1006E0005602F09157026091580270915902C90167
:1006F000840F951F8E0F9F1F860F971F069738F444
:1007000085E080935A0281E08093620268C082E0B3
:100710008093620210925A024217530718F481E044
:1007200080935A02E617F70728F480915A028260F4
:1007300080935A0240915A02E42FF0E0BF01759570
:100740006795E170F070EE0FFF1FEE5AFD4FDB0171
:10075000AA0FBB1FAA5ABD4F208131818D919C9158
:100760008217930720F4417040935A0204C0862FE9
:100770008E5F80935A020E943B0380915A0281301F
:1007800051F0813028F0823049F0833071F409C093
:1007900061E08CE008C061E081E105C061E08BE0D0
:1007A00002C061E08DE00E94710D10925302109220
:1007B0005202109255021092540210925702109257
:1007C000560210925902109258020E945E0C6093D9
:1007D0004E0270934F028093500290935102809189
:1007E0005A0200C01F910F91FF90EF90089560E0B2
:1007F0008AE00E94710D61E08AE00E94530D82E25E
:10080000809380008AE18093810088EB9BE0909345
:100810008B0080938A0080E29EE49093870080930F
:100820008600089561E082E00E94530D61E083E05C
:100830000E94530D61E085E00E94530D61E084E069
:100840000E94530D089560E088E00E94530D60E01F
:1008500086E00E94530D60E087E00E94530D60E047
:1008600089E00E94530D089561E08FE00E94710DB0
:1008700060E08FE00E94710D61E08FE00E94530DF7
:1008800060E080E10E94530D61E08FE00E94710DF5
:1008900068EE73E080E090E00E946C0C0895CF92C7
:1008A000DF92EF92FF920F931F933AE8C32ED12C61
:1008B00024E338E0F601318320837C0100E010E07E
:1008C000C801B7010E946C0C8EE096E0F60191839E
:1008D0008083C801B7010E946C0C88EE93E0F6019A
:1008E00091838083C801B7010E946C0C1F910F9106
:1008F000FF90EF90DF90CF900895CF92DF92EF922C
:10090000FF920F931F93CF93DF938130B9F0813023
:10091000E8F0823059F0833009F0D8C000E010E0F0
:10092000C62FD0E06A01EE24FF24CDC000E010E025
:10093000C62FD0E06A01EE24FF249FC000E010E043
:10094000C62FD0E06A01EE24FF2469C0C0E0D0E0E9
:10095000C62EDD247A0100E010E031C060E08CE0BA
:100960000E94710D61E081E10E94710DC801B70123
:100970000E946C0C60E081E10E94710D61E08BE0EF
:100980000E94710DC801B7010E946C0C60E08BE001
:100990000E94710D61E08DE00E94710DC801B701E8
:1009A0000E946C0C60E08DE00E94710D61E08CE0B3
:1009B0000E94710DC801B7010E946C0C2196CC16E3
:1009C000DD0664F660E08CE069C061E08CE00E94C6
:1009D000710D61E081E10E94710D61E08BE00E9488
:1009E000710D61E08DE00E94710DC701B6010E949A
:1009F0006C0C60E08CE00E94710D60E081E10E946F
:100A0000710D60E08BE00E94710D60E08DE00E944E
:100A1000710DC701B6010E946C0C0F5F1F4FC0170C
:100A2000D1079CF653C060E08CE00E94710D60E03D
:100A30008BE00E94710D61E081E10E94710D61E027
:100A40008DE00E94710DC701B6010E946C0C61E03F
:100A50008CE00E94710D61E08BE00E94710D60E0FE
:100A600081E10E94710D60E08DE00E94710DC7016F
:100A7000B6010E946C0C0F5F1F4FC017D1079CF688
:100A800060E081E10E94710D60E08DE00E94710DD7
:100A900060E08CE00E94710D60E08BE00E94710DBF
:100AA00015C061E08CE00E94710DC701B6010E9483
:100AB0006C0C60E08CE00E94710DC701B6010E94D1
:100AC0006C0C0F5F1F4FC017D1075CF7DF91CF9100
:100AD0001F910F91FF90EF90DF90CF900895EF92CC
:100AE000FF920F931F93CF93DF9360918B027091CE
:100AF0008C02882777FD8095982F0E94311020E086
:100B000030E040E05FE30E94E5107B018C0160E093
:100B100070E080E090E0C0E0D0E020E030E040E035
:100B20005FE30E94E510A80197010E942E0F219615
:100B3000CB30D10591F720E030E040E85FE30E9440
:100B4000E110181614F080E017C044E650E06FE0A2
:100B500083E00E947D0480918B0290918C0290939F
:100B600092028093910280918D0290918E029093D7
:100B700094028093930281E0DF91CF911F910F91B6
:100B8000FF90EF90089561E08CE00E94530D61E0CA
:100B900081E10E94530D61E08BE00E94530D61E002
:100BA0008DE00E94530D46E950E062E080E00E9433
:100BB0007D04089588E00E94BC0D892B49F4809142
:100BC00052029091530201969093530280935202E5
:100BD00086E00E94BC0D892B49F4809154029091CB
:100BE00055020196909355028093540287E00E942B
:100BF000BC0D892B49F480915602909157020196C1
:100C0000909357028093560289E00E94BC0D892B75
:100C100049F480915802909159020196909359029B
:100C2000809358020895AF92BF92CF92DF92EF92D5
:100C3000FF920F931F938C010E945E0C5B016C016D
:100C4000780100E010E002C00E94DA050E945E0C0C
:100C50006A197B098C099D096E157F05800791072C
:100C600098F31F910F91FF90EF90DF90CF90BF907E
:100C7000AF900895EF92FF920F931F9361E08FE082
:100C80000E94710D88E290E00E94130620E43DE08E
:100C900043E050E061E080E10E94080E7B018C019E
:100CA00060E08FE00E94710DC70163E970E00E946F
:100CB0006711CB011F910F91FF90EF900895EF9274
:100CC000FF920F931F937C010E945E0C20914402BF
:100CD000309145024091460250914702621B730BCE
:100CE000840B950B00E010E0E616F70608071907DD
:100CF00080F40E943A0690934902809348020E9431
:100D00005E0C609344027093450280934602909378
:100D1000470280914802909149021F910F91FF90E4
:100D2000EF900895FF920F931F93CF93DF93062FB9
:100D3000882359F460E084E00E94710D60E085E052
:100D40000E94710D109261022EC0CAEFD0E0182FE0
:100D5000873908F016E980916102882311F4F12E99
:100D600010E5013039F460E084E00E94710D612FDC
:100D700070E009C0002351F461E084E00E94710D2D
:100D8000BE01611B710985E00E94FF0C8091610228
:100D9000882349F482E390E00E94130681E0809367
:100DA00061028F2DD4CFDF91CF911F910F91FF90D2
:100DB0000895FF920F931F93CF93DF93062F8823FD
:100DC00059F460E083E00E94710D60E082E00E94CF
:100DD000710D109260022EC0CAEFD0E0182F873933
:100DE00008F016E980916002882311F4F12E10E5D5
:100DF000013039F460E082E00E94710D612F70E0F3
:100E000009C0002351F461E082E00E94710DBE012F
:100E1000611B710983E00E94FF0C809160028823AE
:100E200049F482E390E00E94130681E0809360021F
:100E30008F2DD4CFDF91CF911F910F91FF90089507
:100E4000EF92FF920F931F93CF93DF93FC0140919A
:100E500091025091920220918B0230918C02241BBE
:100E6000350B37FF03C0309521953F4F80913B02F2
:100E700090913C028217930724F430933C02209314
:100E80003B02009193021091940220918D023091C7
:100E90008E02201B310B37FF03C0309521953F4F49
:100EA00080913B0290913C028217930724F4309387
:100EB0003C0220933B027F01E41AF50AF7FE02C0D0
:100EC000EE24FF244E1B5F0B57FF02C040E050E0B2
:100ED000061B170B400F511F25E530E0E0913B0248
:100EE000F0913C02429FC001439F900D529F900D94
:100EF0001124BF010E947B11EB01E00EF11EE29E66
:100F0000C001E39E900DF29E900D1124BF010E943E
:100F10007B118B012FEFCC3FD2072CF460E09E01B8
:100F20002195822F08C0C530D1051CF061E08C2FBF
:100F300002C060E080E00E94D9063FEF0C3F13073B
:100F400024F460E0802F819508C0053011051CF065
:100F500061E0802F02C060E080E00E949206DF9195
:100F6000CF911F910F91FF90EF900895AF92BF9294
:100F7000CF92DF92EF92FF920F931F93182F0E9450
:100F80005E0C209183023091840240918502509141
:100F90008602621B730B840B950B65367105810508
:100FA000910508F499C01130A1F50E943A06A0E01D
:100FB000B0E0BC01CD010E942F105B016C0160917B
:100FC0002D0270912E02882777FD8095982F0E9420
:100FD000311053EDE52E5FEFF52E0DE210E0A60186
:100FE00095010E9410010E94FE0F8B011616170634
:100FF00044F460E080E00E94920660E0802F8C5E06
:101000005FC0672B11F00E51104061E0802F819579
:101010004CC082E0809362020E943A06A0E0B0E0F9
:10102000BC01CD010E942F105B016C0160912D026B
:1010300070912E02882777FD8095982F0E9431109D
:101040004DE2E42EF12C07E810E0A60195010E9484
:1010500010010E94FE0F882777FD8095982F2CE4C1
:1010600034E040E050E00E94481124EB30E040E0E2
:1010700050E00E94B01128513C4F30938B002093D8
:101080008A0080915A02813071F0813028F08230DC
:1010900089F08330B9F40EC061E088E20E949206C4
:1010A00061E088E20DC061E082E30E94920661E0A7
:1010B00080E006C061E080E00E94920661E082E389
:1010C0000E94D9060E945E0C609383027093840292
:1010D00080938502909386021F910F91FF90EF906D
:1010E000DF90CF90BF90AF900895EF92FF920F9353
:1010F0001F9324EA30E74DE75FE36091240270918B
:10110000250280912602909127020E94E5107B0122
:101110008C0180E00E94E10CAA2797FDA095BA2FD0
:10112000BC01CD010E9431102AE037ED43E25CE3BF
:101130000E94E5109B01AC01C801B7010E942E0F6F
:1011400060932402709325028093260290932702D5
:101150002BE137E64CE950E40E94E5109B01AC011D
:101160000E942E0F609328027093290280932A0216
:1011700090932B0220E030E84BEB55E40E94920F55
:1011800088232CF40E943B0384E0809362021F9129
:101190000F91FF90EF900895EF92FF920F931F939E
:1011A0007C010E945E0C20916302309164024091A8
:1011B000650250916602621B730B840B950B00E075
:1011C00010E0E616F7060807190708F05AC00E9453
:1011D0005E0C609363027093640280936502909347
:1011E00066020E94750860E071E085E992E00E9465
:1011F000820A609128027091290280912A029091BE
:101200002B020E94FE0F85E992E00E94C90B67E065
:1012100071E085E992E00E94820A69E071E085E967
:1012200092E00E94820A60914A0270914B02809182
:101230004C0290914D020E94FE0F85E992E00E94BF
:10124000C90B60E171E085E992E00E94820A609139
:101250002D0270912E0285E992E00E94C90B63E194
:1012600071E085E992E00E94820A67E071E085E919
:1012700092E00E94820A65E171E085E992E00E94B5
:10128000820A1F910F91FF90EF9008958091620262
:10129000823009F45FC0833030F4882359F0813004
:1012A00009F098C04FC0833009F460C0843009F061
:1012B00091C06BC068E171E085E992E00E94820A0A
:1012C00060912D0270912E0285E992E00E94D10B6F
:1012D00065E371E085E992E00E94C10A0E946F0512
:1012E000813071F448EC50E065E082E00E947D04BA
:1012F0006FE471E085E992E00E94C10A83E019C0C1
:1013000067E771E085E992E00E94C10A6CE971E04B
:1013100085E992E00E94C10A0E94F7036FEC71E038
:1013200085E992E00E94C10A80ED97E00E944F0497
:1013300081E08093620260E971E080E090E00E94C9
:101340006C0C08950E94DA0584EF91E00E944C0332
:1013500081E007C00E94DA0584EF91E00E944C030F
:1013600080E00E94B6070E9485000AC060918D024D
:1013700070918E0280918B0290918C020E942007C6
:101380008AEF90E00E94CC08089561E080E00E941E
:10139000920661E080E00E94D90644E650E065E0F4
:1013A00082E00E947D0468EE71E085E992E00E948F
:1013B000820A609128027091290280912A029091FC
:1013C0002B020E94FE0F85E992E00E94D10B0E9441
:1013D000750808951092620208950F931F9305E90E
:1013E00012E040E05BE460E070E0C8010E946D0A3A
:1013F00069EF71E0C8010E94820A84B18F7384B9D9
:1014000081E08093680080EC80936B0010928000F4
:101410008AE0809381008AE090E090938900809335
:101420008800EFE6F0E080818260808378940E94FB
:10143000C3050E9423040E9434040E94120480ED1C
:1014400097E00E944F0405E912E06DE072E0C801E8
:101450000E94C10A80E00E94E10CAA2797FDA09596
:10146000BA2FBC01CD010E94311060932402709309
:101470002502809326029093270263E172E0C8015F
:101480000E94820A609124027091250280912602B6
:10149000909127020E94FE0FC8010E94D10B1F915C
:1014A0000F9108950E94A40C0E94ED090E94460924
:1014B000FDCF81E492E09093960280939502089587
:1014C000862F0E94AF0E08950E94E70E08950E9495
:1014D000C80E08950E94B70E0895CB01BA010E946C
:1014E000760E0895DC01ED91FC910190F081E02DE4
:1014F00009950895DC01ED91FC910190F081E02DBA
:10150000099508950F931F93CF93DF938C01EB01FF
:1015100009C02196D801ED91FC910190F081E02D58
:10152000C801099568816623A1F7DF91CF911F91CA
:101530000F9108950F931F938C01DC01ED91FC91A5
:101540000190F081E02D6DE00995D801ED91FC91BD
:101550000190F081E02D6AE0C80109951F910F917B
:1015600008950F931F938C01DC01ED91FC91019084
:10157000F081E02D0995C8010E949A0A1F910F91F0
:1015800008950F931F938C010E94820AC8010E9444
:101590009A0A1F910F9108950F931F938C01DC01FC
:1015A000ED91FC910190F081E02D0995C8010E9418
:1015B0009A0A1F910F9108952F923F924F925F9236
:1015C0006F927F928F929F92AF92BF92CF92DF9253
:1015D000EF92FF920F931F93DF93CF93CDB7DEB7B8
:1015E000A0970FB6F894DEBF0FBECDBF1C016A01F5
:1015F0007B01411551056105710549F4DC01ED914F
:10160000FC910190F081E02D60E3099554C088249D
:1016100099245401422E55246624772401E010E0D9
:101620000C0F1D1F080D191DC701B601A301920162
:101630000E948E11F80160830894811C911CA11CEA
:10164000B11CC701B601A30192010E948E11C9010C
:10165000DA016C017D01C114D104E104F104F1F659
:1016600081E0E82EF12CEC0EFD1EE80CF91C3E0189
:101670000894611C711CD501C4010197A109B1092D
:101680006C01C818D90814C0F601EE0DFF1D608169
:101690006A3010F4605D01C0695CD101ED91FC918C
:1016A0000190F081E02DC10109950894E108F1084D
:1016B0006E147F0449F7A0960FB6F894DEBF0FBEF4
:1016C000CDBFCF91DF911F910F91FF90EF90DF90F1
:1016D000CF90BF90AF909F908F907F906F905F90D2
:1016E0004F903F902F9008952AE00E94DC0A0895C1
:1016F0000F931F938C010E94740BC8010E949A0AD9
:101700001F910F910895AB0160E070E00E94740B8F
:1017100008950F931F938C01AB0160E070E00E946D
:10172000740BC8010E949A0A1F910F910895EF92BD
:10173000FF920F931F93CF93DF93EC017A018B01FC
:1017400077FF0FC0E881F9810190F081E02D6DE213
:10175000099510950095F094E094E11CF11C011D91
:10176000111D2AE0B801A701CE010E94DC0ADF9119
:10177000CF911F910F91FF90EF9008950F931F93BA
:101780008C010E94970BC8010E949A0A1F910F9129
:101790000895AB01662757FD6095762F0E94970B41
:1017A00008950F931F938C01AB01662757FD609539
:1017B000762F0E94970BC8010E949A0A1F910F91E1
:1017C0000895DC012115310541F4ED91FC91019062
:1017D000F081E02D642F099508952A30310519F420
:1017E0000E94970B08950E94DC0A08950F931F939F
:1017F0008C010E94E10BC8010E949A0A1F910F916F
:1018000008951F920F920FB60F9211242F938F936A
:101810009F93AF93BF938091970290919802A0916C
:101820009902B0919A028050904CAF4FBF4F809375
:10183000970290939802A0939902B0939A0227C0BE
:101840008091970290919802A0919902B0919A028A
:1018500080549F41A040B04080939702909398029B
:10186000A0939902B0939A0280919B0290919C025E
:10187000A0919D02B0919E020196A11DB11D809381
:101880009B0290939C02A0939D02B0939E02809134
:10189000970290919802A0919902B0919A02815476
:1018A0009F41A040B04060F6BF91AF919F918F9152
:1018B0002F910F900FBE0F901F9018958FB7F8942F
:1018C00020919B0230919C0240919D0250919E027A
:1018D0008FBFB901CA010895EF92FF920F931F9332
:1018E0007B018C018FB7F89440919B0250919C0230
:1018F00060919D0270919E028FBF2FB7F8948091E6
:101900009B0290919C02A0919D02B0919E022FBFDC
:10191000841B950BA60BB70B8E159F05A007B1076F
:1019200060F31F910F91FF90EF900895019759F088
:10193000019749F0FC01EE0FFF1F31978FB7F89424
:101940003197F1F78FBF0895789484B5826084BD94
:1019500084B5816084BD85B5826085BD85B58160B3
:1019600085BDEEE6F0E0808181608083E1E8F0E013
:10197000808182608083808181608083E0E8F0E004
:10198000808181608083E1EBF0E0808184608083EE
:10199000E0EBF0E0808181608083EAE7F0E0808125
:1019A0008460808380818260808380818160808385
:1019B0008081806880831092C100089580934302E3
:1019C00008958F70909143029295990F990F907C92
:1019D000982B90937C0080917A00806480937A00A9
:1019E00080917A0086FDFCCF2091780040917900AB
:1019F000942F80E030E0282B392BC90108951F93E4
:101A0000CF93DF93182FEB0161E00E94530DE12F7C
:101A1000F0E0E156FF4F8491833051F480918000D3
:101A2000806880938000D0938900C093880037C07D
:101A3000843051F480918000806280938000D09344
:101A40008B00C0938A002BC0813029F484B5806854
:101A500084BDC7BD24C0823029F484B5806284BDB2
:101A6000C8BD1DC0863041F48091B000806880936D
:101A7000B000C093B30013C0873041F48091B00030
:101A800080628093B000C093B40009C0C038D10513
:101A900014F460E001C061E0812F0E94710DDF91BC
:101AA000CF911F910895282F30E0C90185579F4F8E
:101AB000FC01949129583F4FF9018491882381F0CA
:101AC000E82FF0E0E859FF4FE491F0E0662329F4B5
:101AD000808190958923808308958081892B8083DC
:101AE0000895482F50E0CA0181569F4FFC01249170
:101AF000CA0185579F4FFC01949149585F4FFA01E5
:101B000034913323C1F1222331F1233021F4809128
:101B100080008F7705C0243031F4809180008F7D64
:101B20008093800018C0213019F484B58F7704C0E9
:101B3000223021F484B58F7D84BD0DC0263021F480
:101B40008091B0008F7705C0273029F48091B000D4
:101B50008F7D8093B000E32FF0E0E359FF4FE491D5
:101B6000F0E0662329F4808190958923808308958D
:101B70008081892B80830895482F50E0CA018156C7
:101B80009F4FFC012491CA0185579F4FFC019491FE
:101B900049585F4FFA013491332319F420E030E0C3
:101BA00035C0222331F1233021F4809180008F77DA
:101BB00005C0243031F4809180008F7D80938000B7
:101BC00018C0213019F484B58F7704C0223021F475
:101BD00084B58F7D84BD0DC0263021F48091B00086
:101BE0008F7705C0273029F48091B0008F7D8093D6
:101BF000B000E32FF0E0EE58FF4FE491F0E0808179
:101C000020E030E0892311F021E030E0C90108959F
:101C1000EF92FF920F931F93A82FB0E0CD0185574D
:101C20009F4FFC017491A958BF4FFD018491662319
:101C300011F490E001C0972F79018A0133E0EE0C96
:101C4000FF1C001F111F3A95D1F724E01695079548
:101C5000F794E7942A95D1F720E030E040E050E097
:101C6000E82FF0E0EE58FF4F8491A82FB0E00EC0AF
:101C70002E153F054007510729F420E030E040E0F1
:101C800050E02DC02F5F3F4F4F4F5F4F8C91872308
:101C9000891771F720E030E040E050E08491E82FB0
:101CA000F0E004C02F5F3F4F4F4F5F4F808187238D
:101CB0008917C1F3CA01B9012AE030E040E050E0E1
:101CC0000E9448119B01AC01205F3F4F4F4F5F4F77
:101CD00083E056954795379527958A95D1F7B901B1
:101CE000CA011F910F91FF90EF900895EF92FF921C
:101CF0000F931F937B018C0122E030E040E050E025
:101D00000E94B011205E3E45484F5F4FCA01B901A5
:101D1000A80197010E94B011C901DA010197A10938
:101D2000B109292F3A2F4B2F552747FD5A95019678
:101D3000A11DB11D2093C50081508093C400E1EC2A
:101D4000F0E08081806180838081886080838081F1
:101D5000806880831F910F91FF90EF900895982FD6
:101D60008091C00085FFFCCF9093C60008958091BC
:101D70009F029091A00280589F4F2091A102309124
:101D8000A202821B930B60E870E00E947B11089511
:101D90004091A1025091A20280919F029091A002D5
:101DA0008417950719F42FEF3FEF0FC0FA01ED5597
:101DB000FD4F2081CA01019660E870E00E947B110E
:101DC0009093A2028093A10230E0C901089580910E
:101DD000A1029091A2029093A00280939F02089585
:101DE0001F920F920FB60F9211242F933F934F9390
:101DF0005F936F937F938F939F93AF93BF93EF9373
:101E0000FF934091C600E0919F02F091A002CF01A4
:101E1000019660E870E00E947B119C018091A10214
:101E20009091A2022817390739F0ED55FD4F4083F4
:101E30003093A00220939F02FF91EF91BF91AF9149
:101E40009F918F917F916F915F914F913F912F91D2
:101E50000F900FBE0F901F9018955058BB27AA27C0
:101E60000ED075C166D130F06BD120F031F49F3FB8
:101E700011F41EF45BC10EF4E095E7FB51C1E92FAC
:101E800077D180F3BA17620773078407950718F0B4
:101E900071F49EF58FC10EF4E0950B2EBA2FA02D94
:101EA0000B01B90190010C01CA01A0011124FF2707
:101EB000591B99F0593F50F4503E68F11A16F04002
:101EC000A22F232F342F4427585FF3CF4695379501
:101ED0002795A795F0405395C9F77EF41F16BA0BC6
:101EE000620B730B840BBAF09150A1F0FF0FBB1F74
:101EF000661F771F881FC2F70EC0BA0F621F731FBD
:101F0000841F48F4879577956795B795F7959E3F19
:101F100008F0B3CF9395880F08F09927EE0F9795A7
:101F200087950895D9D008F481E008950CD00FC1A9
:101F300007D140F0FED030F021F45F3F19F0F0C03F
:101F4000511139C1F3C014D198F39923C9F3552322
:101F5000B1F3951B550BBB27AA276217730784079C
:101F600038F09F5F5F4F220F331F441FAA1FA9F352
:101F700033D00E2E3AF0E0E830D091505040E69544
:101F8000001CCAF729D0FE2F27D0660F771F881FA5
:101F9000BB1F261737074807AB07B0E809F0BB0B94
:101FA000802DBF01FF2793585F4F2AF09E3F5105B8
:101FB00068F0B6C000C15F3FECF3983EDCF3869555
:101FC00077956795B795F7959F5FC9F7880F911D2E
:101FD0009695879597F90895E1E0660F771F881F1A
:101FE000BB1F621773078407BA0720F0621B730BCD
:101FF000840BBA0BEE1F88F7E095089504D068941F
:10200000B111D9C00895BCD088F09F5790F0B92F76
:102010009927B751A0F0D1F0660F771F881F991F3D
:102020001AF0BA95C9F712C0B13081F0C3D0B1E04F
:102030000895C0C0672F782F8827B85F39F0B93F5F
:10204000CCF3869577956795B395D9F73EF490953F
:102050008095709561957F4F8F4F9F4F0895E894BD
:1020600009C097FB3EF490958095709561957F4FE0
:102070008F4F9F4F9923A9F0F92F96E9BB2793958E
:10208000F695879577956795B795F111F8CFFAF49E
:10209000BB0F11F460FF1BC06F5F7F4F8F4F9F4FCF
:1020A00016C0882311F096E911C0772321F09EE82D
:1020B000872F762F05C0662371F096E8862F70E093
:1020C00060E02AF09A95660F771F881FDAF7880F6D
:1020D0009695879597F90895990F0008550FAA0BC3
:1020E000E0E8FEEF16161706E807F907C0F012162B
:1020F0001306E407F50798F0621B730B840B950B2E
:1021000039F40A2661F0232B242B252B21F4089582
:102110000A2609F4A140A6958FEF811D811D08951F
:1021200097F99F6780E870E060E008959FEF80EC8A
:10213000089500240A94161617061806090608952D
:1021400000240A9412161306140605060895092E93
:102150000394000C11F4882352F0BB0F40F4BF2B02
:1021600011F460FF04C06F5F7F4F8F4F9F4F089542
:1021700057FD9058440F551F59F05F3F71F0479538
:10218000880F97FB991F61F09F3F79F0879508951D
:10219000121613061406551FF2CF4695F1DF08C03C
:1021A000161617061806991FF1CF86957105610559
:1021B00008940895E894BB2766277727CB0197F901
:1021C00008958ADF08F48FEF08950BD0C0CFB1DFF8
:1021D00028F0B6DF18F0952309F0A2CFA7CF11247D
:1021E000EACFC6DFA0F3959FD1F3950F50E0551FBE
:1021F000629FF001729FBB27F00DB11D639FAA275C
:10220000F00DB11DAA1F649F6627B00DA11D661FAA
:10221000829F2227B00DA11D621F739FB00DA11DCB
:10222000621F839FA00D611D221F749F3327A00D85
:10223000611D231F849F600D211D822F762F6A2F21
:1022400011249F5750408AF0E1F088234AF0EE0FA6
:10225000FF1FBB1F661F771F881F91505040A9F7B3
:102260009E3F510570F05CCFA6CF5F3FECF3983EE8
:10227000DCF3869577956795B795F795E7959F5F1A
:10228000C1F7FE2B880F911D9695879597F90895B4
:10229000629FD001739FF001829FE00DF11D649F4A
:1022A000E00DF11D929FF00D839FF00D749FF00DD6
:1022B000659FF00D9927729FB00DE11DF91F639F77
:1022C000B00DE11DF91FBD01CF0111240895AA1B16
:1022D000BB1B51E107C0AA1FBB1FA617B70710F011
:1022E000A61BB70B881F991F5A95A9F78095909543
:1022F000BC01CD01089597FB092E07260AD077FD72
:1023000004D0E5DF06D000201AF4709561957F4F68
:102310000895F6F7909581959F4F0895A1E21A2EA2
:10232000AA1BBB1BFD010DC0AA1FBB1FEE1FFF1F79
:10233000A217B307E407F50720F0A21BB30BE40BC9
:10234000F50B661F771F881F991F1A9469F7609510
:102350007095809590959B01AC01BD01CF010895CA
:1023600097FB092E05260ED057FD04D0D7DF0AD0E3
:10237000001C38F450954095309521953F4F4F4FB4
:102380005F4F0895F6F790958095709561957F4F12
:102390008F4F9F4F0895EE0FFF1F0590F491E02D92
:0623A0000994F894FFCF40
:1023A600426174743A2000090020416C743A20009E
:1023B600205B005D000D0A0052656164696E67204E
:1023C6007374617274757020616C74697475646578
:1023D6002E2E2E2000436865636B696E672052437C
:1023E60020636F6E6E656374696F6E2E2E2E0052BB
:1023F600432064657465637465642C206163746945
:10240600766174696E672050574D207365747469E0
:102416006E67732E2E2E004E6F2052432064657415
:1024260065637465642C207374617274696E6720C9
:102436006E6F726D616C6C792E2E2E005374617204
:1024460074696E672074696D6572312046617374B4
:102456002050574D2C20746F2070756C7365207654
:102466006563746F7220736572766F2E2E2E00541C
:10247600657374696E6720566563746F7220536561
:1024860072766F2E2E2E20004C4F57204241544517
:102496005252592121213A20005374617274696E97
:1024A600672053797374656D2E2E2E20004F4B21B5
:1024B6002121004261747465727920416E616C6FEE
:1024C600673A200000C07F440080BB45051E00001F
:1024D60000A041CDCCBC40CDCCCC3D1400000000CA
:0424E60000600A0187
:00000001FF
