:100000000C945B000C9483000C9483000C944F02BE
:100010000C9483000C9483000C9483000C94830054
:100020000C9483000C9483000C9483000C942F0296
:100030000C9483000C9483000C9483000C94830034
:100040000C94E90B0C9483000C94D80E0C94830050
:100050000C9483000C9483000C9483000C94830014
:100060000C9483000C948300000024272A000025B0
:10007000282B000023262904040404040404040299
:100080000202020202030303030303010204081035
:100090002040800102040810200102040810200002
:1000A0000000070002010000030406000000000039
:1000B00000000000410A11241FBECFEFD4E0DEBFD4
:1000C000CDBF12E0A0E0B1E0E6E7F3E202C00590A8
:1000D0000D92A434B107D9F713E0A4E4B2E001C053
:1000E0001D92A332B107E1F710E0C6EBD0E004C0E7
:1000F0002297FE010E94B511C43BD107C9F70E94A7
:100100003A0A0C94B9110C9400002F923F924F922E
:100110005F926F927F928F929F92AF92BF92CF9297
:10012000DF92EF92FF920F931F93DF93CF9300D054
:1001300000D000D0CDB7DEB71B012C0139014A0138
:100140005801FE82ED8220E030E040E05FE3609104
:100150004A0270914B0280914C0290914D020E9494
:10016000CD107B018C0120E030E040E05FE3C40172
:10017000B3010E94CD109B01AC01C801B7010E94E0
:10018000160F60934A0270934B0280934C02909337
:100190004D02A20191010E94150F1B012C016093D9
:1001A0007B0270937C0280937D0290937E0220916B
:1001B0002F023091300240913102509132020E9460
:1001C000CD1069837A838B839C8360937F027093C5
:1001D00080028093810290938202E0907702F090F7
:1001E00078020091790210917A02CC24B7FCC09475
:1001F000DC2CC601B5010E9419103B014C019B018A
:10020000AC01C801B7010E947A0F88230CF03DC0F1
:100210002D813E81B901882777FD8095982F0E9416
:1002200019109B01AC01C801B7010E94C910181632
:1002300064F520913302309134024091350250919F
:100240003602C201B1010E94CD1020E030E048EC3E
:1002500052E40E94CD1020E030E04AE754E40E94CE
:100260007E0F9B01AC0160916702709168028091E2
:10027000690290916A020E94160F60936702709360
:1002800068028093690290936A0220917302309110
:1002900074024091750250917602C201B1010E9430
:1002A000150F20E030E048EC52E40E947E0F20E081
:1002B00030E04AE754E40E947E0F209137023091EB
:1002C00038024091390250913A020E94CD107B01D0
:1002D0008C0160936B0270936C0280936D0290931B
:1002E0006E02AD81BE81BD01882777FD8095982F74
:1002F0000E9419105B016C01209167023091680225
:100300004091690250916A0269817A818B819C8156
:100310000E94160FA80197010E94160F7B018C0105
:10032000A40193010E94C910181614F484017301EA
:10033000A6019501C801B7010E947A0F882314F421
:1003400086017501E0927702F092780200937902BB
:1003500010937A02209273023092740240927502D6
:1003600050927602A4019301C801B7010E94C910FE
:10037000181614F484017301A6019501C801B70190
:100380000E947A0F882314F486017501B701C80111
:1003900026960FB6F894DEBF0FBECDBFCF91DF918A
:1003A0001F910F91FF90EF90DF90CF90BF90AF9093
:1003B0009F908F907F906F905F904F903F902F9085
:1003C00008956F927F928F929F92AF92BF92CF9239
:1003D000DF92EF92FF920F931F935B016C01922EBD
:1003E000832E742E652E0E94C910181624F4A92C91
:1003F000B82CC72CD62C9701A801B501C6010E94C4
:100400007A0F882314F457016801B501C6011F91C2
:100410000F91FF90EF90DF90CF90BF90AF909F90A3
:100420008F907F906F90089584B18F7384B981E02D
:100430008093680080EC80936B00109280008AE0CB
:10044000809381008AE090E09093890080938800F7
:10045000EFE6F0E0808182608083789408951F92B7
:100460000F920FB60F9211248F939F938091870262
:1004700090918802019690938802809387028091E0
:10048000890290918A02019690938A028093890250
:100490009F918F910F900FBE0F901F9018951F92F4
:1004A0000F920FB60F9211248F939F931F9B0BC037
:1004B00080918F02882339F410928802109287026B
:1004C00081E080938F021F990EC080918F0281304E
:1004D00051F4809187029091880290938C028093CE
:1004E0008B0210928F021E9B0BC08091900288237A
:1004F00039F410928A021092890282E0809390026D
:100500001E990EC080919002823051F48091890230
:1005100090918A0290938E0280938D0210929002A5
:100520009F918F910F900FBE0F901F901895AA2743
:1005300097FDA095BA2FBC01CD0120E832E240E042
:1005400050E00E94301124EB30E040E050E00E9487
:1005500098112050314E4F4F5F4FCA01B90128E02A
:1005600030E040E050E00E94981130938B002093DF
:100570008A0008959091620280912C02981709F4E4
:1005800081C090932C0220E030E040E050E02093C6
:100590006702309368024093690250936A02209385
:1005A0006B0230936C0240936D0250936E02209365
:1005B0007302309374024093750250937602209335
:1005C0007702309378024093790250937A02209315
:1005D0007B0230937C0240937D0250937E022093F5
:1005E0007F023093800240938102509382029130C7
:1005F00021F0923009F046C029C080E090E00E94CE
:10060000970280E090E0A0E4B0E480932F02909302
:100610003002A0933102B09332028DEC9CECACEC32
:10062000BDE38093330290933402A0933502B093DC
:10063000360280E090E0A8E4B3E480933702909320
:100640003802A0933902B0933A02089580E090E016
:10065000A0EEB0E480932F0290933002A093310279
:10066000B093320220933302309334024093350228
:100670005093360220933702309338024093390268
:1006800050933A02089560E08CE00E94590D60E0BA
:1006900081E10E94590D60E08BE00E94590D60E0FD
:1006A0008DE00E94590D0895EF92FF920F931F93D2
:1006B0007C010E94460C20914E0230914F024091E5
:1006C000500250915102621B730B840B950B00E09A
:1006D00010E0E616F7060807190708F08BC04091EE
:1006E0005202509153022091540230915502E091F0
:1006F0005602F09157026091580270915902C90157
:10070000840F951F8E0F9F1F860F971F069738F433
:1007100085E080935A0281E08093620268C082E0A3
:100720008093620210925A024217530718F481E034
:1007300080935A02E617F70728F480915A028260E4
:1007400080935A0240915A02E42FF0E0BF01759560
:100750006795E170F070EE0FFF1FEE5AFD4FDB0161
:10076000AA0FBB1FAA5ABD4F208131818D919C9148
:100770008217930720F4417040935A0204C0862FD9
:100780008E5F80935A020E94430380915A02813007
:1007900051F0813028F0823049F0833071F409C083
:1007A00061E08CE008C061E081E105C061E08BE0C0
:1007B00002C061E08DE00E94590D10925302109228
:1007C0005202109255021092540210925702109247
:1007D000560210925902109258020E94460C6093E1
:1007E0004E0270934F028093500290935102809179
:1007F0005A0200C01F910F91FF90EF90089560E0A2
:100800008AE00E94590D61E08AE00E943B0D82E27D
:10081000809380008AE18093810088EB9BE0909335
:100820008B0080938A0080E29EE4909387008093FF
:100830008600089561E082E00E943B0D61E083E064
:100840000E943B0D61E085E00E943B0D61E084E089
:100850000E943B0D089560E088E00E943B0D60E03F
:1008600086E00E943B0D60E087E00E943B0D60E067
:1008700089E00E943B0D089561E08FE00E94590DD0
:1008800060E08FE00E94590D61E08FE00E943B0D17
:1008900060E080E10E943B0D61E08FE00E94590D15
:1008A00068EE73E080E090E00E94540C0895EF92AF
:1008B000FF920F931F937C0184EB90E00E949702BC
:1008C00000E010E0C801B7010E94540C8AE590E0F6
:1008D0000E949702C801B7010E94540C80E090E08A
:1008E0000E949702C801B7010E94540C1F910F91FA
:1008F000FF90EF900895CF92DF92EF92FF920F93C7
:100900001F93CF93DF938130B9F08130E8F08230CC
:1009100059F0833009F0D8C000E010E0C62FD0E0D5
:100920006A01EE24FF24CDC000E010E0C62FD0E025
:100930006A01EE24FF249FC000E010E0C62FD0E043
:100940006A01EE24FF2469C0C0E0D0E0C62EDD2499
:100950007A0100E010E031C060E08CE00E94590DA7
:1009600061E081E10E94590DC801B7010E94540C59
:1009700060E081E10E94590D61E08BE00E94590D19
:10098000C801B7010E94540C60E08BE00E94590D31
:1009900061E08DE00E94590DC801B7010E94540C1E
:1009A00060E08DE00E94590D61E08CE00E94590DDD
:1009B000C801B7010E94540C2196CC16DD0664F6DE
:1009C00060E08CE069C061E08CE00E94590D61E05C
:1009D00081E10E94590D61E08BE00E94590D61E0B8
:1009E0008DE00E94590DC701B6010E94540C60E0D1
:1009F0008CE00E94590D60E081E10E94590D60E099
:100A00008BE00E94590D60E08DE00E94590DC701F6
:100A1000B6010E94540C0F5F1F4FC017D1079CF600
:100A200053C060E08CE00E94590D60E08BE00E94B2
:100A3000590D61E081E10E94590D61E08DE00E9455
:100A4000590DC701B6010E94540C61E08CE00E9470
:100A5000590D61E08BE00E94590D60E081E10E9438
:100A6000590D60E08DE00E94590DC701B6010E944A
:100A7000540C0F5F1F4FC017D1079CF660E081E157
:100A80000E94590D60E08DE00E94590D60E08CE0FD
:100A90000E94590D60E08BE00E94590D15C061E085
:100AA0008CE00E94590DC701B6010E94540C60E011
:100AB0008CE00E94590DC701B6010E94540C0F5FD3
:100AC0001F4FC017D1075CF7DF91CF911F910F9196
:100AD000FF90EF90DF90CF900895EF92FF920F93E9
:100AE0001F93CF93DF9360918B0270918C028827C4
:100AF00077FD8095982F0E94191020E030E040E0AB
:100B00005FE30E94CD107B018C0160E070E080E02B
:100B100090E0C0E0D0E020E030E040E05FE30E9401
:100B2000CD10A80197010E94160F2196CB30D10558
:100B300091F720E030E040E85FE30E94C91018160A
:100B400014F080E017C044E650E06FE083E00E94BC
:100B50007B0480918B0290918C02909392028093FF
:100B6000910280918D0290918E02909394028093D5
:100B7000930281E0DF91CF911F910F91FF90EF9051
:100B8000089561E08CE00E943B0D61E081E10E94EC
:100B90003B0D61E08BE00E943B0D61E08DE00E9427
:100BA0003B0D46E950E062E080E00E947B0408953E
:100BB00088E00E94A40D892B49F480915202909103
:100BC00053020196909353028093520286E00E9452
:100BD000A40D892B49F480915402909155020196FD
:100BE000909355028093540287E00E94A40D892BB4
:100BF00049F48091560290915702019690935702C2
:100C00008093560289E00E94A40D892B49F48091BB
:100C1000580290915902019690935902809358027C
:100C20000895AF92BF92CF92DF92EF92FF920F930F
:100C30001F938C010E94460C5B016C01780100E05F
:100C400010E002C00E94D8050E94460C6A197B0978
:100C50008C099D096E157F058007910798F31F91F8
:100C60000F91FF90EF90DF90CF90BF90AF900895DD
:100C7000EF92FF920F931F9361E08FE00E94590D56
:100C800088E290E00E94110620E43DE043E050E05D
:100C900061E080E10E94F00D7B018C0160E08FE05B
:100CA0000E94590DC70163E970E00E944F11CB010A
:100CB0001F910F91FF90EF900895EF92FF920F9385
:100CC0001F937C010E94460C209144023091450202
:100CD0004091460250914702621B730B840B950BA7
:100CE00000E010E0E616F7060807190780F40E94F6
:100CF000380690934902809348020E94460C609304
:100D0000440270934502809346029093470280917B
:100D10004802909149021F910F91FF90EF90089522
:100D2000FF920F931F93CF93DF93062F882359F4DD
:100D300060E084E00E94590D60E085E00E94590D5A
:100D4000109261022EC0CAEFD0E0182F873908F048
:100D500016E980916102882311F4F12E10E501302B
:100D600039F460E084E00E94590D612F70E009C001
:100D7000002351F461E084E00E94590DBE01611B23
:100D8000710985E00E94E70C80916102882349F493
:100D900082E390E00E94110681E0809361028F2D32
:100DA000D4CFDF91CF911F910F91FF900895FF92C3
:100DB0000F931F93CF93DF93062F882359F460E09E
:100DC00083E00E94590D60E082E00E94590D10926C
:100DD00060022EC0CAEFD0E0182F873908F016E95C
:100DE00080916002882311F4F12E10E5013039F46E
:100DF00060E082E00E94590D612F70E009C000237D
:100E000051F461E082E00E94590DBE01611B71093D
:100E100083E00E94E70C80916002882349F482E31A
:100E200090E00E94110681E0809360028F2DD4CF64
:100E3000DF91CF911F910F91FF900895EF92FF9254
:100E40000F931F93CF93DF93FC0140919102509138
:100E5000920220918B0230918C02241B350B37FFBC
:100E600003C0309521953F4F80913B0290913C0209
:100E70008217930724F430933C0220933B020091A5
:100E800093021091940220918D0230918E02201BCA
:100E9000310B37FF03C0309521953F4F80913B02C6
:100EA00090913C028217930724F430933C022093E4
:100EB0003B027F01E41AF50AF7FE02C0EE24FF248C
:100EC0004E1B5F0B57FF02C040E050E0061B170BA4
:100ED000400F511F25E530E0E0913B02F0913C02CC
:100EE000429FC001439F900D529F900D1124BF015E
:100EF0000E946311EB01E00EF11EE29EC001E39E31
:100F0000900DF29E900D1124BF010E9463118B0180
:100F10002FEFCC3FD2072CF460E09E012195822F69
:100F200008C0C530D1051CF061E08C2F02C060E024
:100F300080E00E94D7063FEF0C3F130724F460E0E7
:100F4000802F819508C0053011051CF061E0802FCD
:100F500002C060E080E00E949006DF91CF911F9177
:100F60000F91FF90EF900895AF92BF92CF92DF92D2
:100F7000EF92FF920F931F93182F0E94460C20911F
:100F80008302309184024091850250918602621B57
:100F9000730B840B950B653671058105910508F47B
:100FA00087C01130A1F50E943806A0E0B0E0BC0176
:100FB000CD010E9417105B016C0160912D027091B0
:100FC0002E02882777FD8095982F0E94191043EDF7
:100FD000E42E4FEFF42E0DE210E0A60195010E94E1
:100FE00085000E94E60F8B011616170644F460E098
:100FF00080E00E94900660E0802F8C5E4DC0672BE1
:1010000011F00E51104061E0802F81953AC082E0CE
:10101000809362020E943806A0E0B0E0BC01CD01DE
:101020000E9417105B016C0160912D0270912E02DD
:10103000882777FD8095982F0E9419103DE2E32EB6
:10104000F12C07E810E0A60195010E9485000E949E
:10105000E60FDC01CB010E94970280915A02813099
:1010600071F0813028F0823089F08330B9F40EC0FD
:1010700061E088E20E94900661E088E20DC061E0D4
:1010800082E30E94900661E080E006C061E080E0BB
:101090000E94900661E082E30E94D7060E94460CFF
:1010A00060938302709384028093850290938602FA
:1010B0001F910F91FF90EF90DF90CF90BF90AF9076
:1010C0000895EF92FF920F931F9324EA30E74DE7C4
:1010D0005FE3609124027091250280912602909135
:1010E00027020E94CD107B018C0180E00E94C90C78
:1010F000AA2797FDA095BA2FBC01CD010E94191017
:101100002AE037ED43E25CE30E94CD109B01AC0185
:10111000C801B7010E94160F609324027093250244
:1011200080932602909327022BE137E64CE950E4A6
:101130000E94CD109B01AC010E94160F6093280203
:101140007093290280932A0290932B0220E030E8CA
:101150004BEB55E40E947A0F88232CF40E94430342
:1011600084E0809362021F910F91FF90EF900895A9
:10117000EF92FF920F931F937C010E94460C2091E7
:101180006302309164024091650250916602621BD5
:10119000730B840B950B00E010E0E616F7060807CA
:1011A000190708F05AC00E94460C609363027093BE
:1011B000640280936502909366020E94610860E079
:1011C00071E085E992E00E946A0A609128027091BC
:1011D000290280912A0290912B020E94E60F85E954
:1011E00092E00E94B10B67E071E085E992E00E9415
:1011F0006A0A69E071E085E992E00E946A0A6091FA
:101200004A0270914B0280914C0290914D020E94D3
:10121000E60F85E992E00E94B10B60E171E085E99B
:1012200092E00E946A0A60912D0270912E0285E977
:1012300092E00E94B10B63E171E085E992E00E94C7
:101240006A0A67E071E085E992E00E946A0A65E156
:1012500071E085E992E00E946A0A1F910F91FF9068
:10126000EF90089580916202823009F45FC083306C
:1012700030F4882359F0813009F098C04FC0833092
:1012800009F460C0843009F091C06BC068E171E07E
:1012900085E992E00E946A0A60912D0270912E0207
:1012A00085E992E00E94B90B65E371E085E992E07F
:1012B0000E94A90A0E946D05813071F448EC50E04B
:1012C00065E082E00E947B046FE471E085E992E0D2
:1012D0000E94A90A83E019C067E771E085E992E0FE
:1012E0000E94A90A6CE971E085E992E00E94A90ACE
:1012F0000E94FF036FEC71E085E992E00E94A90A69
:1013000088EE93E00E94570481E08093620260E9D6
:1013100071E080E090E00E94540C08950E94D8058E
:1013200084EF91E00E94540381E007C00E94D80539
:1013300084EF91E00E94540380E00E94B4070E9471
:10134000BA020AC060918D0270918E0280918B0268
:1013500090918C020E941E078AEF90E00E94B808CC
:10136000089561E080E00E94900661E080E00E94C4
:10137000D70644E650E065E082E00E947B0468EE18
:1013800071E085E992E00E946A0A609128027091FA
:10139000290280912A0290912B020E94E60F85E992
:1013A00092E00E94B90B0E946108089510926202B7
:1013B00008950F931F9305E912E040E05BE460E0BD
:1013C00070E0C8010E94550A69EF71E0C8010E94EF
:1013D0006A0A84B18F7384B981E08093680080ECDD
:1013E00080936B00109280008AE0809381008AE0F5
:1013F00090E09093890080938800EFE6F0E0808190
:101400008260808378940E94C1050E942B040E9410
:101410003C040E941A0405E912E06DE072E0C80184
:101420000E94A90A80E00E94C90CAA2797FDA095F6
:10143000BA2FBC01CD010E94191060932402709351
:101440002502809326029093270263E172E0C8018F
:101450000E946A0A609124027091250280912602FE
:10146000909127020E94E60FC8010E94B90B1F91BC
:101470000F9108950E948C0C0E94D9090E94320994
:10148000FDCF81E492E090939602809395020895B7
:10149000862F0E94970E08950E94CF0E08950E94F5
:1014A000B00E08950E949F0E0895CB01BA010E94CC
:1014B0005E0E0895DC01ED91FC910190F081E02D2C
:1014C00009950895DC01ED91FC910190F081E02DEA
:1014D000099508950F931F93CF93DF938C01EB0130
:1014E00009C02196D801ED91FC910190F081E02D89
:1014F000C801099568816623A1F7DF91CF911F91FB
:101500000F9108950F931F938C01DC01ED91FC91D5
:101510000190F081E02D6DE00995D801ED91FC91ED
:101520000190F081E02D6AE0C80109951F910F91AB
:1015300008950F931F938C01DC01ED91FC910190B4
:10154000F081E02D0995C8010E94820A1F910F9138
:1015500008950F931F938C010E946A0AC8010E948C
:10156000820A1F910F9108950F931F938C01DC0144
:10157000ED91FC910190F081E02D0995C8010E9448
:10158000820A1F910F9108952F923F924F925F927E
:101590006F927F928F929F92AF92BF92CF92DF9283
:1015A000EF92FF920F931F93DF93CF93CDB7DEB7E8
:1015B000A0970FB6F894DEBF0FBECDBF1C016A0125
:1015C0007B01411551056105710549F4DC01ED917F
:1015D000FC910190F081E02D60E3099554C08824CE
:1015E00099245401422E55246624772401E010E00A
:1015F0000C0F1D1F080D191DC701B601A301920193
:101600000E947611F80160830894811C911CA11C32
:10161000B11CC701B601A30192010E947611C90154
:10162000DA016C017D01C114D104E104F104F1F689
:1016300081E0E82EF12CEC0EFD1EE80CF91C3E01B9
:101640000894611C711CD501C4010197A109B1095D
:101650006C01C818D90814C0F601EE0DFF1D608199
:101660006A3010F4605D01C0695CD101ED91FC91BC
:101670000190F081E02DC10109950894E108F1087D
:101680006E147F0449F7A0960FB6F894DEBF0FBE24
:10169000CDBFCF91DF911F910F91FF90EF90DF9021
:1016A000CF90BF90AF909F908F907F906F905F9002
:1016B0004F903F902F9008952AE00E94C40A089509
:1016C0000F931F938C010E945C0BC8010E94820A39
:1016D0001F910F910895AB0160E070E00E945C0BD8
:1016E00008950F931F938C01AB0160E070E00E949E
:1016F0005C0BC8010E94820A1F910F910895EF921E
:10170000FF920F931F93CF93DF93EC017A018B012C
:1017100077FF0FC0E881F9810190F081E02D6DE243
:10172000099510950095F094E094E11CF11C011DC1
:10173000111D2AE0B801A701CE010E94C40ADF9161
:10174000CF911F910F91FF90EF9008950F931F93EA
:101750008C010E947F0BC8010E94820A1F910F9189
:101760000895AB01662757FD6095762F0E947F0B89
:1017700008950F931F938C01AB01662757FD609569
:10178000762F0E947F0BC8010E94820A1F910F9141
:101790000895DC012115310541F4ED91FC91019092
:1017A000F081E02D642F099508952A30310519F450
:1017B0000E947F0B08950E94C40A08950F931F93FF
:1017C0008C010E94C90BC8010E94820A1F910F91CF
:1017D00008951F920F920FB60F9211242F938F939B
:1017E0009F93AF93BF938091970290919802A0919D
:1017F0009902B0919A028050904CAF4FBF4F8093A6
:10180000970290939802A0939902B0939A0227C0EE
:101810008091970290919802A0919902B0919A02BA
:1018200080549F41A040B0408093970290939802CB
:10183000A0939902B0939A0280919B0290919C028E
:10184000A0919D02B0919E020196A11DB11D8093B1
:101850009B0290939C02A0939D02B0939E02809164
:10186000970290919802A0919902B0919A028154A6
:101870009F41A040B04060F6BF91AF919F918F9182
:101880002F910F900FBE0F901F9018958FB7F8945F
:1018900020919B0230919C0240919D0250919E02AA
:1018A0008FBFB901CA010895EF92FF920F931F9362
:1018B0007B018C018FB7F89440919B0250919C0260
:1018C00060919D0270919E028FBF2FB7F894809116
:1018D0009B0290919C02A0919D02B0919E022FBF0D
:1018E000841B950BA60BB70B8E159F05A007B107A0
:1018F00060F31F910F91FF90EF900895019759F0B9
:10190000019749F0FC01EE0FFF1F31978FB7F89454
:101910003197F1F78FBF0895789484B5826084BDC4
:1019200084B5816084BD85B5826085BD85B58160E3
:1019300085BDEEE6F0E0808181608083E1E8F0E043
:10194000808182608083808181608083E0E8F0E034
:10195000808181608083E1EBF0E08081846080831E
:10196000E0EBF0E0808181608083EAE7F0E0808155
:1019700084608083808182608083808181608083B5
:101980008081806880831092C10008958093430213
:1019900008958F70909143029295990F990F907CC2
:1019A000982B90937C0080917A00806480937A00D9
:1019B00080917A0086FDFCCF2091780040917900DB
:1019C000942F80E030E0282B392BC90108951F9314
:1019D000CF93DF93182FEB0161E00E943B0DE12FC5
:1019E000F0E0E156FF4F8491833051F48091800004
:1019F000806880938000D0938900C093880037C0AE
:101A0000843051F480918000806280938000D09374
:101A10008B00C0938A002BC0813029F484B5806884
:101A200084BDC7BD24C0823029F484B5806284BDE2
:101A3000C8BD1DC0863041F48091B000806880939D
:101A4000B000C093B30013C0873041F48091B00060
:101A500080628093B000C093B40009C0C038D10543
:101A600014F460E001C061E0812F0E94590DDF9104
:101A7000CF911F910895282F30E0C90185579F4FBE
:101A8000FC01949129583F4FF9018491882381F0FA
:101A9000E82FF0E0E859FF4FE491F0E0662329F4E5
:101AA000808190958923808308958081892B80830C
:101AB0000895482F50E0CA0181569F4FFC012491A0
:101AC000CA0185579F4FFC01949149585F4FFA0115
:101AD00034913323C1F1222331F1233021F4809159
:101AE00080008F7705C0243031F4809180008F7D95
:101AF0008093800018C0213019F484B58F7704C01A
:101B0000223021F484B58F7D84BD0DC0263021F4B0
:101B10008091B0008F7705C0273029F48091B00004
:101B20008F7D8093B000E32FF0E0E359FF4FE49105
:101B3000F0E0662329F480819095892380830895BD
:101B40008081892B80830895482F50E0CA018156F7
:101B50009F4FFC012491CA0185579F4FFC0194912E
:101B600049585F4FFA013491332319F420E030E0F3
:101B700035C0222331F1233021F4809180008F770A
:101B800005C0243031F4809180008F7D80938000E7
:101B900018C0213019F484B58F7704C0223021F4A5
:101BA00084B58F7D84BD0DC0263021F48091B000B6
:101BB0008F7705C0273029F48091B0008F7D809306
:101BC000B000E32FF0E0EE58FF4FE491F0E08081A9
:101BD00020E030E0892311F021E030E0C9010895D0
:101BE000EF92FF920F931F93A82FB0E0CD0185577E
:101BF0009F4FFC017491A958BF4FFD01849166234A
:101C000011F490E001C0972F79018A0133E0EE0CC6
:101C1000FF1C001F111F3A95D1F724E01695079578
:101C2000F794E7942A95D1F720E030E040E050E0C7
:101C3000E82FF0E0EE58FF4F8491A82FB0E00EC0DF
:101C40002E153F054007510729F420E030E040E021
:101C500050E02DC02F5F3F4F4F4F5F4F8C91872338
:101C6000891771F720E030E040E050E08491E82FE0
:101C7000F0E004C02F5F3F4F4F4F5F4F80818723BD
:101C80008917C1F3CA01B9012AE030E040E050E011
:101C90000E9430119B01AC01205F3F4F4F4F5F4FBF
:101CA00083E056954795379527958A95D1F7B901E1
:101CB000CA011F910F91FF90EF900895EF92FF924C
:101CC0000F931F937B018C0122E030E040E050E055
:101CD0000E949811205E3E45484F5F4FCA01B901EE
:101CE000A80197010E949811C901DA010197A10981
:101CF000B109292F3A2F4B2F552747FD5A950196A9
:101D0000A11DB11D2093C50081508093C400E1EC5A
:101D1000F0E0808180618083808188608083808121
:101D2000806880831F910F91FF90EF900895982F06
:101D30008091C00085FFFCCF9093C60008958091EC
:101D40009F029091A00280589F4F2091A102309154
:101D5000A202821B930B60E870E00E946311089559
:101D60004091A1025091A20280919F029091A00205
:101D70008417950719F42FEF3FEF0FC0FA01ED55C7
:101D8000FD4F2081CA01019660E870E00E94631156
:101D90009093A2028093A10230E0C901089580913E
:101DA000A1029091A2029093A00280939F020895B5
:101DB0001F920F920FB60F9211242F933F934F93C0
:101DC0005F936F937F938F939F93AF93BF93EF93A3
:101DD000FF934091C600E0919F02F091A002CF01D5
:101DE000019660E870E00E9463119C018091A1025D
:101DF0009091A2022817390739F0ED55FD4F408325
:101E00003093A00220939F02FF91EF91BF91AF9179
:101E10009F918F917F916F915F914F913F912F9102
:101E20000F900FBE0F901F9018955058BB27AA27F0
:101E30000ED075C166D130F06BD120F031F49F3FE8
:101E400011F41EF45BC10EF4E095E7FB51C1E92FDC
:101E500077D180F3BA17620773078407950718F0E4
:101E600071F49EF58FC10EF4E0950B2EBA2FA02DC4
:101E70000B01B90190010C01CA01A0011124FF2737
:101E8000591B99F0593F50F4503E68F11A16F04032
:101E9000A22F232F342F4427585FF3CF4695379531
:101EA0002795A795F0405395C9F77EF41F16BA0BF6
:101EB000620B730B840BBAF09150A1F0FF0FBB1FA4
:101EC000661F771F881FC2F70EC0BA0F621F731FED
:101ED000841F48F4879577956795B795F7959E3F4A
:101EE00008F0B3CF9395880F08F09927EE0F9795D8
:101EF00087950895D9D008F481E008950CD00FC1DA
:101F000007D140F0FED030F021F45F3F19F0F0C06F
:101F1000511139C1F3C014D198F39923C9F3552352
:101F2000B1F3951B550BBB27AA27621773078407CC
:101F300038F09F5F5F4F220F331F441FAA1FA9F382
:101F400033D00E2E3AF0E0E830D091505040E69574
:101F5000001CCAF729D0FE2F27D0660F771F881FD5
:101F6000BB1F261737074807AB07B0E809F0BB0BC4
:101F7000802DBF01FF2793585F4F2AF09E3F5105E8
:101F800068F0B6C000C15F3FECF3983EDCF3869585
:101F900077956795B795F7959F5FC9F7880F911D5E
:101FA0009695879597F90895E1E0660F771F881F4A
:101FB000BB1F621773078407BA0720F0621B730BFD
:101FC000840BBA0BEE1F88F7E095089504D068944F
:101FD000B111D9C00895BCD088F09F5790F0B92FA7
:101FE0009927B751A0F0D1F0660F771F881F991F6E
:101FF0001AF0BA95C9F712C0B13081F0C3D0B1E080
:102000000895C0C0672F782F8827B85F39F0B93F8F
:10201000CCF3869577956795B395D9F73EF490956F
:102020008095709561957F4F8F4F9F4F0895E894ED
:1020300009C097FB3EF490958095709561957F4F10
:102040008F4F9F4F9923A9F0F92F96E9BB279395BE
:10205000F695879577956795B795F111F8CFFAF4CE
:10206000BB0F11F460FF1BC06F5F7F4F8F4F9F4FFF
:1020700016C0882311F096E911C0772321F09EE85D
:10208000872F762F05C0662371F096E8862F70E0C3
:1020900060E02AF09A95660F771F881FDAF7880F9D
:1020A0009695879597F90895990F0008550FAA0BF3
:1020B000E0E8FEEF16161706E807F907C0F012165B
:1020C0001306E407F50798F0621B730B840B950B5E
:1020D00039F40A2661F0232B242B252B21F40895B3
:1020E0000A2609F4A140A6958FEF811D811D089550
:1020F00097F99F6780E870E060E008959FEF80ECBB
:10210000089500240A94161617061806090608955D
:1021100000240A9412161306140605060895092EC3
:102120000394000C11F4882352F0BB0F40F4BF2B32
:1021300011F460FF04C06F5F7F4F8F4F9F4F089572
:1021400057FD9058440F551F59F05F3F71F0479568
:10215000880F97FB991F61F09F3F79F0879508954D
:10216000121613061406551FF2CF4695F1DF08C06C
:10217000161617061806991FF1CF86957105610589
:1021800008940895E894BB2766277727CB0197F931
:1021900008958ADF08F48FEF08950BD0C0CFB1DF28
:1021A00028F0B6DF18F0952309F0A2CFA7CF1124AD
:1021B000EACFC6DFA0F3959FD1F3950F50E0551FEE
:1021C000629FF001729FBB27F00DB11D639FAA278C
:1021D000F00DB11DAA1F649F6627B00DA11D661FDB
:1021E000829F2227B00DA11D621F739FB00DA11DFC
:1021F000621F839FA00D611D221F749F3327A00DB6
:10220000611D231F849F600D211D822F762F6A2F51
:1022100011249F5750408AF0E1F088234AF0EE0FD6
:10222000FF1FBB1F661F771F881F91505040A9F7E3
:102230009E3F510570F05CCFA6CF5F3FECF3983E18
:10224000DCF3869577956795B795F795E7959F5F4A
:10225000C1F7FE2B880F911D9695879597F90895E4
:10226000629FD001739FF001829FE00DF11D649F7A
:10227000E00DF11D929FF00D839FF00D749FF00D06
:10228000659FF00D9927729FB00DE11DF91F639FA7
:10229000B00DE11DF91FBD01CF0111240895AA1B46
:1022A000BB1B51E107C0AA1FBB1FA617B70710F041
:1022B000A61BB70B881F991F5A95A9F78095909573
:1022C000BC01CD01089597FB092E07260AD077FDA2
:1022D00004D0E5DF06D000201AF4709561957F4F99
:1022E0000895F6F7909581959F4F0895A1E21A2ED3
:1022F000AA1BBB1BFD010DC0AA1FBB1FEE1FFF1FAA
:10230000A217B307E407F50720F0A21BB30BE40BF9
:10231000F50B661F771F881F991F1A9469F7609540
:102320007095809590959B01AC01BD01CF010895FA
:1023300097FB092E05260ED057FD04D0D7DF0AD013
:10234000001C38F450954095309521953F4F4F4FE4
:102350005F4F0895F6F790958095709561957F4F42
:102360008F4F9F4F0895EE0FFF1F0590F491E02DC2
:062370000994F894FFCF70
:10237600426174743A2000090020416C743A2000CE
:10238600205B005D000D0A0052656164696E67207E
:102396007374617274757020616C746974756465A8
:1023A6002E2E2E2000436865636B696E67205243AC
:1023B60020636F6E6E656374696F6E2E2E2E0052EB
:1023C600432064657465637465642C206163746975
:1023D600766174696E672050574D20736574746911
:1023E6006E67732E2E2E004E6F2052432064657446
:1023F60065637465642C207374617274696E6720FA
:102406006E6F726D616C6C792E2E2E005374617234
:1024160074696E672074696D6572312046617374E4
:102426002050574D2C20746F2070756C7365207684
:102436006563746F7220736572766F2E2E2E00544C
:10244600657374696E6720566563746F7220536591
:1024560072766F2E2E2E20004C4F57204241544547
:102466005252592121213A20005374617274696EC7
:10247600672053797374656D2E2E2E20004F4B21E5
:102486002121004261747465727920416E616C6F1E
:10249600673A200000C07F440080BB45051E00004F
:1024A60000A041CDCCBC40CDCCCC3D1400000000FA
:0424B60000480A01CF
:00000001FF
